:1000000000200010D500000049010000B10D0000E3
:1000100000000000000000000000000031D0FFEFF1
:100020000000000000000000000000004D01000082
:1000300000000000000000004F010000A90B0000BC
:10004000550100005D01000065010000890A000003
:100050008D0600007D010000850100008D0100007B
:1000600095010000AD160000A5010000AD010000E3
:10007000B5010000BD010000C5010000CD01000078
:10008000D5010000DD010000E5010000ED010000E8
:10009000F5010000FD010000050200000D02000056
:1000A000150200001D020000250200002D020000C4
:1000B000350200003D020000450200004D02000034
:1000C000B04A00008000001070000000F000001036
:1000D0003402000010B572B601F00AFF0D4B07E0C4
:1000E000186859681C000C349A6800F019F823004D
:1000F000094A9342F4D306E018681C000834596892
:1001000000F019F82300054A9342F5D362B603F0D4
:1001100086F8FEE7C0000000CC000000D40000001C
:1001200010B5002304E004680C600433043004318B
:100130009342F8D310BD002303E000220260043391
:1001400004308B42F9D37047FEE7FEE7FEE7FEE797
:10015000FEE7FEE710B501F0D7FA10BD10B501F0CB
:10016000EDFA10BD10B5FFF7F4FF10BD10B501F0AA
:1001700057FD10BD10B501F065FD10BD10B501F0C3
:1001800073FD10BD10B5FFF7E4FF10BD10B501F011
:100190004DF910BD10B501F039F910BD10B5FFF7DC
:1001A000D8FF10BD10B5FFF7D4FF10BD10B5FFF795
:1001B000D0FF10BD10B5FFF7CCFF10BD10B5FFF795
:1001C000C8FF10BD10B5FFF7C4FF10BD10B5FFF795
:1001D000C0FF10BD10B5FFF7BCFF10BD10B5FFF795
:1001E000B8FF10BD10B5FFF7B4FF10BD10B5FFF795
:1001F000B0FF10BD10B501F0AFF810BD10B501F0A3
:1002000025F910BD10B5FFF7A4FF10BD10B5FFF71D
:10021000A0FF10BD10B501F043F910BD10B501F0FD
:1002200065F910BD10B501F087F910BD10B501F0EA
:10023000A9F910BD10B501F0CBF910BD10B5FFF74D
:1002400088FF10BD10B5FFF784FF10BD10B5FFF794
:1002500080FF10BDFFFFFFFFFFFFFFFFFFFFFFFF5E
:10026000FFFFFFFFFFFFFFFFFFFFFFFFFFFFFFFF9E
:10027000FFFFFFFFFFFFFFFFFFFFFFFFFFFFFFFF8E
:10028000FFFFFFFFFFFFFFFFFFFFFFFFFFFFFFFF7E
:10029000FFFFFFFFFFFFFFFFFFFFFFFFFFFFFFFF6E
:1002A000FFFFFFFFFFFFFFFFFFFFFFFFFFFFFFFF5E
:1002B000FFFFFFFFFFFFFFFFFFFFFFFFFFFFFFFF4E
:1002C000FFFFFFFFFFFFFFFFFFFFFFFFFFFFFFFF3E
:1002D000FFFFFFFFFFFFFFFFFFFFFFFFFFFFFFFF2E
:1002E000FFFFFFFFFFFFFFFFFFFFFFFFFFFFFFFF1E
:1002F000FFFFFFFFFFFFFFFFFFFFFFFFFFFFFFFF0E
:1003000090B589B000AFF860B9603B60FB1D1A7012
:10031000FB1D1B78082B01D0012324E0144BFA1D90
:1003200012781A70FA68124B5A6014210C007B186C
:10033000180001F025FB21007B18BA681A607B18B1
:1003400001221A717B1801225A71094B5B683A68C5
:100350007918180001F094FA054B064A9A60044B8C
:10036000054ADA6000231800BD4609B090BDC046BA
:10037000F0000010E11A0000411B000080B582B0BF
:1003800000AF0200FB1D1A70FB1D1B787F2B09D8E4
:10039000FB1D1B781A001F231A40044B01219140BA
:1003A0000A001A60C046BD4602B080BD00E100E010
:1003B00090B583B000AF02003960FB1D1A70FB1DC1
:1003C0001B787F2B28D82F4AFB1D1B785BB29B081C
:1003D000C0339B009B58FA1D1278110003220A407B
:1003E000D200FF2191400A00D2431A4011003B681D
:1003F0009B01FF221A40FB1D1B78180003230340BA
:10040000DB009A401F48FB1D1B785BB29B080A4328
:10041000C0339B001A5031E01B4AFB1D1B781900AA
:100420000F230B40083B9B0806339B00D318043373
:100430001B68FA1D1278110003220A40D200FF2126
:1004400091400A00D2431A4011003B689B01FF22F1
:100450001A40FB1D1B78180003230340DB009A4061
:100460000948FB1D1B781C000F232340083B9B08F9
:100470000A4306339B00C31804331A60C046BD46C6
:1004800003B090BD00E100E000ED00E080B582B077
:1004900000AF78607B68013B0C4A934201D901238D
:1004A00010E00B4B7A68013A5A6001235B4203214A
:1004B0001800FFF77DFF064B00229A60044B0722CD
:1004C0001A6000231800BD4602B080BDFFFFFF0088
:1004D00010E000E080B582B000AF0200FB1D1A7092
:1004E000074A8023D358FA1D1278012191400A004F
:1004F0000349134380228B50C046BD4602B080BDE5
:100500000080044080B582B000AF02003960BB1D9E
:100510001A80BB1D1B881B051B0D054A94466344AE
:100520003A68FF210A401A60C046BD4602B080BD4D
:100530000080044090B585B000AF0023FB6001232C
:10054000BB602E4B1B78053B3B6000237B602C4A35
:100550003B68D3181B786D2B45D1FB680133FB60DA
:10056000264B1B785A1FFB68D31A3B60244A3B6812
:10057000D3181B782F2B30D9214A3B68D3181B780E
:10058000392B2AD8BB68012B0BD11D4A3B68D318E5
:100590001B781A007B68D318303B7B600A23BB6052
:1005A0001BE0174A3B68D3181B78303BBA685343AB
:1005B0001A007B689B187B60B86802F0FAFE0300A3
:1005C0000C001800210001F06BFF03000C00180064
:1005D000210002F0E5FB0300BB60094A3B68D31829
:1005E0001B787C2BB9D17A6813005B019B1A9B00A6
:1005F0009B18DB001800BD4605B090BD1A03001023
:100600001401001080B584B000AF0023FB601C4BC8
:100610001B78053B3B600023BB600E237B60194ABF
:100620003B68D3181B786D2B24D1FB680133FB602A
:10063000134B1B785A1FFB68D31A3B60BB68012B16
:100640000ED1104A3B68D31819780F4A7B68D3182B
:100650000A1C1A707B68002B0BD07B68013B7B6007
:10066000084A3B68D3181B787C2BDED10123BB6082
:10067000DBE7C046044B1800BD4604B080BDC04651
:100680001A030010140100107C01001090B583B013
:1006900000AFB04B180002F033FC020004231340FB
:1006A00020D0AD4B1B78DBB2002B1BD0AB4B1B78A3
:1006B000DBB25A1CD1B2A94A11701A00A84B9B5C3C
:1006C000A84A1900100002F041FCA44B1B78DAB2D2
:1006D000A54B1B78DBB29A4204D19E4B0421180033
:1006E00002F026FC9B4B180002F00AFC02000123DA
:1006F000134000D1ACE1FC1D964B180002F035FC14
:1007000003002370984B1B78DBB25A1CD1B2964A77
:1007100011701900924BFA1D12785A54C0468D4B35
:10072000180002F0EDFB020004231340F7D0FB1D7C
:100730001B788C4A1900100002F008FC8B4B1B78C8
:10074000012B5ED18A4B1B785A1CD1B2884A11709A
:100750001900884BFA1D12785A54874B1B78002BCE
:100760000AD1FB1D1B78302B06D1834B1B7801333C
:10077000DAB2814B1A7020E07F4B1B78012B0AD133
:10078000FB1D1B780D2B06D17B4B1B780133DAB296
:10079000794B1A7011E0784B1B78022B0AD1FB1DA4
:1007A0001B780A2B06D1744B1B780133DAB2724BDB
:1007B0001A7002E0704B00221A706F4B1B78032BEB
:1007C00016D16A4B1B78012B08D16C4B01221A7091
:1007D000664B00221A70664B00221A70624B002290
:1007E0001A705D4B01221A70634B00221A705EE092
:1007F0005D4B1B78DBB2632B59D1614B01221A7020
:1008000055E0604B1B78002B51D15F4B1B78002BC0
:100810000AD1FB1D1B780D2B06D15B4B1B780133D6
:10082000DAB2594B1A7011E0574B1B78012B0AD1E1
:10083000FB1D1B780A2B06D1534B1B780133DAB210
:10084000514B1A7002E0504B00221A704E4B1B782D
:10085000022B2CD1444B00221A70414B1B782B2BBE
:100860001FD13F4B1A78494B1A703D4B5A78474B72
:100870005A703B4B9A78454B9A70394BDA78434B18
:10088000DA70374B1A79414B1A7141493F4B0522B7
:10089000180002F0FCFC031E03D1314B1A7B3D4BC8
:1008A0001A702D4B01221A70374B00221A70354BEB
:1008B0001B78012B00D0CBE0334B1B78002B0AD1E7
:1008C000FB1D1B780D2B06D12F4B1B780133DAB2A1
:1008D0002D4B1A7011E02C4B1B78012B0AD1FB1DFC
:1008E0001B780A2B06D1284B1B780133DAB2264B32
:1008F0001A7002E0244B00221A701F4B1B78002B49
:100900000AD1FB1D1B78302B06D11B4B1B78013302
:10091000DAB2194B1A7042E0174B1B78012B0AD13F
:10092000FB1D1B780D2B06D1134B1B780133DAB25C
:10093000114B1A7033E0104B1B78022B2CD1FB1D8E
:100940001B780A2B28D10C4B1B780133DAB20A4BE7
:100950001A7024E0008006402203001021030010DA
:100960001401001000400640200300101B0300107B
:1009700018030010100100101E0300101D030010CA
:10098000230300101C0300101F03001008010010B7
:1009900058340000190300102F4B00221A702F4BFF
:1009A0001B78022B0FD12E4B1B78342B0BD12D4BE8
:1009B00000221A702C4B01221A702C4B00221A7044
:1009C0002B4B00221A70244B1B78032B40D1244B55
:1009D0001B782B2B3CD1224B1A78264B1A70204BBC
:1009E0005A78244B5A701E4B9A78224B9A701C4BA3
:1009F000DA78204BDA701A4B1A791E4B1A711E499D
:100A00001C4B0522180002F042FC031E17D1144BA8
:100A10001A7B174B1A70134B1B78DBB2013BDAB20F
:100A2000164B1A70FFF786FD0200154B1A60FFF790
:100A3000E9FD0200134B1A600C4B00221A70094B9F
:100A400000221A70084B01221A70084B00221A70FB
:100A5000C046BD4603B090BD1E0300101F0300102A
:100A60001401001020030010220300101C030010CA
:100A70001903001008010010603400001A03001070
:100A8000000100100401001090B583B000AF404B8E
:100A9000180002F035FA02000423134020D03D4B29
:100AA0001B78DBB2002B1BD03B4B1B78DBB25A1CF4
:100AB000D1B2394A11701A00384B9B5C344A190084
:100AC000100002F043FA344B1B78DAB2344B1B7837
:100AD000DBB29A4204D12E4B0421180002F028FA0E
:100AE0002B4B180002F00CFA0200012313404BD0EC
:100AF000FC1D274B180002F038FA03002370284B26
:100B00001B78DBB25A1CD1B2254A11701900234B55
:100B1000FA1D12785A54C0461D4B180002F0F0F925
:100B2000020004231340F7D0FB1D1B78184A19005C
:100B3000100002F00BFAFB1D1B780D2B1CD1184B7B
:100B40001B78DBB25A1CD1B2154A11701A00134B34
:100B50000A219954C0460E4B180002F0D1F9020048
:100B600004231340F7D00A4B0A21180002F0EEF9D3
:100B7000084B01221A7007E0094B1B78DBB2632B8C
:100B800002D1084B01221A70C046BD4603B090BD89
:100B90000040064022030010210300101401001041
:100BA000200300102303001080B500AF054B1B6825
:100BB000002B04D0034B1B685A1E024B1A60C04620
:100BC000BD4680BD7801001080B582B000AF78606E
:100BD000054B7A681A60C046034B1B68002BFBD19B
:100BE000C046BD4602B080BD7801001080B500AFA0
:100BF0000E20FFF76FFC0F20FFF76CFC0121942003
:100C0000FFF780FC02F0FFFA02F0C7FA02F0CCFA1C
:100C100001F06CF800F05CF8244B1A68FA23990094
:100C2000100002F05DFB03001800FFF72FFC031E0D
:100C300000D0FEE702F0A4F91D4B1B781D4B1B787A
:100C4000DBB2002B0BD01C4B1C483922190000F0E2
:100C500047FF184B00221A70194B00221A70194BCB
:100C60001B78002B10D0174B1B782F2B0CD9154B52
:100C70001B78392B08D8144B1B78002B04D1124B4E
:100C800001221A7000F05AF8104B1B68002BD3D0C9
:100C900002F076F90D4B1B681800FFF795FF02F084
:100CA0007BF90A4B00221A60C6E7C046EC00001030
:100CB00022030010230300108000001000400640B3
:100CC00020030010190300101C0300100001001085
:100CD00080B584B000AF3B1D180000F051FE3B1DF5
:100CE00001221A713B1D01225A713B1D962292016D
:100CF0001A60012000F01AF902003B1D0C4819008F
:100D000000F0BEFD0B4B0A482322190000F0E8FE5C
:100D1000094B01221A70064B0121180002F0FAF863
:100D2000042002F0BBF8C046BD4604B080BDC046FA
:100D300000800640BC0000101B03001080B500AF0F
:100D4000154B1B78002B24D0134B1B78302B20D055
:100D5000114B1A78114B1A72104B11480B221900C3
:100D600000F0BEFE0E4B0421180002F0D3F8C0467E
:100D70000C4B1B78DAB20C4B1B78DBB29A42F7D1E2
:100D8000084B00221A70084B00221A70074B0022F1
:100D90001A70C046BD4680BD19030010E000001067
:100DA00000800640210300102003001022030010E1
:100DB00004207146084202D0EFF3098001E0EFF30E
:100DC000088081690A88054B9A4200D0FEE702310B
:100DD0008161202101607047C0460000ABBE000069
:100DE00080B500AF00F078F8054B9B6FFF221340F1
:100DF000190002F075FA03001800BD4680BDC04618
:100E00000080044080B500AF00F0C8F80100044B3A
:100E10009B681F22134001334B431800BD4680BD21
:100E20000080044080B500AF024B1B681800BD462F
:100E300080BDC0469001001080B500AF024B1B681A
:100E40001800BD4680BDC0468C01001080B582B040
:100E500000AF786039607B68002B03D10D4B180020
:100E600001F05CF87B681B683A68D2431A407B68E3
:100E70001A607B681A683B681A437B681A60C04630
:100E80007B681B683A681340FAD0C046BD4602B082
:100E900080BDC0466834000080B500AF014B18002B
:100EA000BD4680BD001BB70080B582B000AF0023F7
:100EB0007B60084A8E239B00D3582022134003D125
:100EC000FFF7BAFF03007B607B681800BD4602B0E5
:100ED00080BDC0460080044080B582B000AF0023D2
:100EE0007B60114B1B6F012B0AD004D3022B0CD05B
:100EF000032B0FD013E0FFF7CFFF03007B600EE062
:100F000000F04CF803007B6009E0FFF78BFF030063
:100F10007B6004E0FFF776FF03007B60C0467B68E0
:100F20001800BD4602B080BD0080044080B584B08A
:100F300000AF0200FB1D1A70FB1D1B78072B22D887
:100F40009A00154BD3181B689F46FFF749FF030013
:100F5000FB601BE0FFF7C0FF0300FB6016E0FFF73C
:100F60009BFF0300FB6011E0FFF766FF0300FB60DF
:100F70000CE0FFF757FF0300FB6007E0FFF742FFBD
:100F80000300FB6002E00023FB60C046FB68180022
:100F9000BD4604B080BDC0463C35000080B582B07F
:100FA00000AF00237B600F4B1B6C03221340012B0F
:100FB00008D002D3032B0AD00EE0FFF76DFF030029
:100FC0007B6009E0FFF770FF03007B6004E0FFF740
:100FD00033FF03007B60C0467B681800BD4602B04B
:100FE00080BDC0460080044080B584B000AF78600A
:100FF0000023FB607B680D4A934202D90023FB600B
:101000000FE07B680A4A934202D90123FB6008E0A3
:101010007B68084A934202D90223FB6001E0032364
:10102000FB60FB681800BD4604B080BD802FA6049D
:10103000C0175302E08B290180B586B000AF7860FD
:101040007B681B68374A934203D9374B180000F07E
:1010500065FF00237B6100233B610023FB60334A73
:101060008E239B00D358314980221A438E239B0044
:10107000CA502E4B1B6C032293437A681279134398
:1010800019002A4B1A6C294B0A431A64284B032176
:101090001800FFF7DBFEFFF781FF0300FB60FB6832
:1010A000002B03D1234B180000F038FF7B681B682E
:1010B000F968180002F014F903007B617B681B6873
:1010C0001800FFF791FF03003B61184B9B687F22DC
:1010D00093431A007B69013B1F210B401A43110007
:1010E0003B695B0160221A40104B0A439A600F4A29
:1010F0008E239B00D3580D49802293431A008E23E0
:101100009B00CA50C046094BDB6801221340FAD04D
:10111000FB687A695A43084B1A60C046BD4606B060
:1011200080BDC04600E1F5058C340000008004401D
:1011300044800440DC3400009401001080B584B089
:1011400000AF0200BB1D1A80BB1D1B88FF2213408D
:10115000FB60BB1D1B881B0A9BB21A00FF231340B8
:10116000BB600F4B1B6F03221340BA689A4212D028
:10117000FB68002B0FD10A4B1B6F0322934319000E
:10118000BB6803221A40064B0A431A67054B01212C
:101190001800FFF75BFEC046BD4604B080BDC046E8
:1011A000008004407480044080B584B000AF786053
:1011B0000023FB6006E00C4A7B68934206D0FB6884
:1011C0000133FB60FB68002BF5D000E0C046FB68F4
:1011D000002B03D0054B180000F0A0FEFB681800A0
:1011E000BD4604B080BDC046008000503C370000C2
:1011F00090B587B000AF78607B68180001F0D8FE2A
:1012000003003B6100237B6100237B6199E07A69E5
:101210003B69D2184F4B9200D358FB60FB68002B00
:1012200000D18AE0FB681B7B1A001F231340BB60C0
:10123000FB689B6858331A00FB681B7B5B09DBB2B9
:101240009B00D3181A68BB68DA40130001221340D0
:101250001AD0FB689B6858331A00FB681B7B5B093C
:10126000DBB29B00D3180121BA6891400A001A60D2
:10127000FB681B68002B07D0FB681C68FB6859687B
:10128000F86800230122A047FB689B6860331A00BE
:10129000FB681B7B5B09DBB29B00D3181A68BB6839
:1012A000DA401300012213401AD0FB689B686033B8
:1012B0001A00FB681B7B5B09DBB29B00D318012182
:1012C000BA6891400A001A60FB681B68002B07D0BF
:1012D000FB681C68FB685968F86801230122A04775
:1012E000FB689B6840331A00FB681B7B5B09DBB221
:1012F0009B00D3181A68BB68DA4013000122134020
:101300001CD0FB689B6840331A00FB681B7B5B09A1
:10131000DBB29B00D3180121BA6891400A001A6021
:10132000FB681B68002B09D0FB681C68FB685968C8
:10133000F86802230022A04700E0C0467B69013321
:101340007B617B69182B00D861E7C046BD4607B0BA
:1013500090BDC0469801001080B500AF034B180047
:10136000FFF746FFC046BD4680BDC0460080005026
:1013700080B582B000AF0200FB1D1A70074A8023BF
:10138000D358FA1D1278012191400A0003491343F2
:1013900080228B50C046BD4602B080BD0080044014
:1013A00080B582B000AF786039603B68002B03D015
:1013B000054B180000F0B2FD06231800FFF7D8FF18
:1013C000C046BD4602B080BDCC3D000080B582B0B5
:1013D00000AF786039607B681B680122134006D03B
:1013E000084B1B6839687A681000984705E0064B7F
:1013F0001B6839687A6810009847C046BD4602B03D
:1014000080BDC0460C0200101002001080B500AF75
:10141000044B1B68044A19001000FFF7D7FFC046B1
:10142000BD4680BDFC0100100000054080B500AF46
:10143000044B5B68044A19001000FFF7C7FFC04661
:10144000BD4680BDFC0100100040054080B500AFE6
:10145000044B9B68044A19001000FFF7B7FFC04611
:10146000BD4680BDFC0100100000074080B586B07D
:1014700000AF7860094B9B6A7B617B691B0E3B6107
:101480003B69002B05D07B68DB6AFB607B68FA68F0
:10149000DA623B691800BD4606B080BD004000A07E
:1014A00080B582B000AF0F4B1800FFF7DFFF0300DD
:1014B0007B600D4B1B68002B05D00B4B1B687A68BB
:1014C000110000209847074B1B680122134004D1EC
:1014D000044B0021180001F0E7FDC046BD4602B0F4
:1014E00080BDC046004000A01402001080B582B04C
:1014F00000AF0F4B1800FFF7B9FF03007B600D4BE7
:101500005B68002B05D00B4B5B687A6811000120EB
:101510009847074B1B680222134004D1044B01215A
:10152000180001F0C1FDC046BD4602B080BDC046F6
:10153000004000A01402001080B582B000AF0F4B35
:101540001800FFF793FF03007B600D4B9B68002B97
:1015500005D00B4B9B687A68110002209847074B17
:101560001B680422134004D1044B0221180001F02F
:101570009BFDC046BD4602B080BDC046004000A0F5
:101580001402001080B582B000AF0F4B1800FFF7B7
:101590006DFF03007B600D4BDB68002B05D00B4B10
:1015A000DB687A68110003209847074B1B68082204
:1015B000134004D1044B0321180001F075FDC0460F
:1015C000BD4602B080BDC046004000A0140200101D
:1015D00080B582B000AF0F4B1800FFF747FF030044
:1015E0007B600D4B1B69002B05D00B4B1B697A6888
:1015F000110004209847074B1B681022134004D1A8
:10160000044B0421180001F04FFDC046BD4602B056
:1016100080BDC046004000A01402001080B584B018
:1016200000AF0200FB1D1A70FB1D1B78FB6001223E
:10163000FB689A401300BB60FB681F2B03D9074B64
:10164000180000F06BFC064B5A68BB68D943044B8A
:101650000A405A60C046BD4604B080BD0C3E000042
:101660000080044080B584B000AF0200FB1D1A70FA
:10167000FB1D1B78FB600122FB689A401300BB60D6
:10168000FB681F2B03D9074B180000F047FC064BE3
:101690005968054BBA680A435A60C046BD4604B053
:1016A00080BDC046383E00000080044080B500AFD9
:1016B000034B1B68034A10009847C046BD4680BDD7
:1016C000340200100040005080B582B000AF786056
:1016D00039607B68180001F00CFD031E06D0084B32
:1016E0001B6839687A681000984705E0054B1B684D
:1016F00039687A6810009847C046BD4602B080BD80
:10170000400200104402001080B500AF084B1B6877
:10171000002B03D1074B180000F000FC044B1B68A2
:10172000054A19001000FFF7CFFFC046BD4680BD37
:1017300038020010104300000080054080B500AF63
:10174000084B5B68002B03D1074B180000F0E6FB49
:10175000044B5B68054A19001000FFF7B5FFC0464F
:10176000BD4680BD380200103C43000000C005406B
:1017700080B586B000AF786008001100FB1C021C29
:101780001A70BB1C0A1C1A707B68002B03D11D4BFE
:10179000180000F0C3FBFB1C1B782F2B03D91A4B3E
:1017A000180000F0BBFB00237B6100233B61FB1CA6
:1017B0001B789B08DBB27B61FB1C1B780322134068
:1017C000DB003B617B687A699200D358FB60FF22A3
:1017D0003B699A401300DB431A00FB681340FB602F
:1017E000BB1C1A783B699A4013001A00FB6813432C
:1017F000FB607B687A699200F968D150C046BD46AB
:1018000006B080BD684300009043000080B582B000
:1018100000AF0200FB1D1A70074A8023D358FA1D3F
:101820001278012191400A000349134380228B5012
:10183000C046BD4602B080BD0080044080B584B083
:1018400000AF78600023FB600BE00B4BFA6892005E
:10185000D2587B689A4201D1FB6809E0FB680133EA
:10186000FB60FB68022BF0DD044B180000F056FB18
:101870001800BD4604B080BD384400004C44000050
:1018800080B586B000AFF860B9607A6000237B61F4
:10189000FB68002B05D0BB68002B02D07B68002BB7
:1018A00003D1344B180000F039FBFB681800FFF738
:1018B000C5FF03003B61304A3B69D3181B78180011
:1018C000FFF7A4FF2D4A3B69D3181B78180001F0DD
:1018D000FCFBBB689B791B0130221A40BB68DB799B
:1018E0009B0140210B401A43BB689B7A5B08DBB22B
:1018F000D90280231B010B401A43BB681B7A9B0053
:101900000C210B401A43BB685B7ADB031B041B0CE6
:101910001A43BB689B7A99038023DB010B40134376
:1019200001221A43FB681A60BB681B68002B08D0B1
:10193000BB6819687A68FB68180000F04BF8030070
:101940007B617B69002B01D07B690EE0BB685A7913
:10195000FB681100180001F0DBFBBB681A79FB681B
:101960001100180001F0F7FB00231800BD4606B077
:1019700080BDC046A8450000444400004844000023
:1019800080B582B000AF78607B68002B03D1104B2C
:10199000180000F0C3FA7B68962292011A607B68F7
:1019A00000229A717B680022DA717B6801221A7228
:1019B0007B6800225A727B6800221A717B680022C1
:1019C0005A717B6800229A72C046BD4602B080BD43
:1019D0003046000080B58CB000AFF860B9607A6026
:1019E000FB68002B05D0BB68002B02D07B68002B66
:1019F00003D1384B180000F091FA01235B42FB62DF
:101A00000F23BB6201235B427B620023FB61002347
:101A1000BB6100233B6200237B61FB681A68802363
:101A20001B0113400AD0B968786801F059FC030023
:101A3000BB61BB695A1EFB681A6246E0BB6A3B6227
:101A400034E03B6A0133BA6853431900786801F007
:101A500047FC0300013BBB61BB691F4A934221D88D
:101A60003B6A0133BA69013253431900786801F0C7
:101A700037FC03007B61BA687B699A4203D27A69BA
:101A8000BB68D31A02E0BA687B69D31AFB61FA69B2
:101A9000FB6A9A4207D2FB69FB623B6ABB62BB6985
:101AA0007B6200E0C0463B6A013B3B623B6A072B1E
:101AB000C7D87B6A084A934201D9084B06E0FB6805
:101AC000BA6A9A62FB687A6A1A6200231800BD46F5
:101AD0000CB080BD5C460000FFFF00004F16000008
:101AE00080B584B000AFF860B9607A60FB68002B05
:101AF00002D0BB68002B14D1104B180000F00EFA76
:101B0000C046FB689B6804221340FAD0BB681B7870
:101B10001A00FB68DA61BB680133BB607B68013B7C
:101B20007B607B68002BEBD1C046FB689B6808227A
:101B30001340FAD0C046BD4604B080BDB846000090
:101B400080B586B000AFF860B9607A60FB68002BA2
:101B500002D0BB68002B50D12C4B180000F0DEF9EE
:101B6000C046FB689B6801221340FAD0FB685B69A2
:101B7000DAB2BB681A70BB680133BB60FB689B6854
:101B80007B617A6980239B01134008D0FB689B68C6
:101B9000802292011A43FB689A601D4B31E07A69FA
:101BA0008023DB01134008D0FB689B688022D201B0
:101BB0001A43FB689A60174B23E07A6980231B0263
:101BC000134008D0FB689B68802212021A43FB680E
:101BD0009A60114B15E0FB689A6880235B00134004
:101BE00008D0FB689B68802252001A43FB689A6009
:101BF0000A4B06E07B68013B7B607B68002BAFD122
:101C000000231800BD4606B080BDC046FC4600005B
:101C10004C1600004D1600004B1600004E1600003A
:101C200080B500AF044B1A68044B1B6804481900C8
:101C30009047C046BD4680BD5402001048020010C7
:101C40000040064080B500AF044B1A68044B5B6847
:101C5000044819009047C046BD4680BD540200109C
:101C6000480200100080064080B500AF044B1A689F
:101C7000044B9B68044819009047C046BD4680BD90
:101C8000540200104802001000C0064080B582B027
:101C900000AF0200FB1D1A70074A8023D358FA1DBB
:101CA0001278012191400A000349134380228B508E
:101CB000C046BD4602B080BD0080044080B582B001
:101CC00000AF02003960BB1D1A80BB1D1B881B05BD
:101CD0001B0D054A944663443A68FF210A401A6086
:101CE000C046BD4602B080BD0080044080B582B0D1
:101CF00000AF0E20FFF7CAFF01219420FFF7DEFF9F
:101D0000032001F0E2F9FFF7E7F8020096239901BA
:101D1000094813000822FEF7F3FA03007B607B6892
:101D2000002B03D0054B180000F0F8F87B68180072
:101D3000BD4602B080BDC046004006401C4A0000BF
:101D400080B582B000AF0200BB1D1A80BB1D1A888F
:101D5000BB1D1B881B0A9BB21900FF230B400549C2
:101D60008C466344FF210A401A60C046BD4602B05B
:101D700080BDC0460080044080B582B000AF78606E
:101D80007B68002B03D1094B180000F0C7F8084B03
:101D90009B6FFF22934319007B68FF221A40044B7C
:101DA0000A439A67C046BD4602B080BD4C4A000057
:101DB0000080044080B582B000AF7860074A8E236F
:101DC0009B00D3587A68D24304491A408E239B0063
:101DD000CA50C046BD4602B080BDC0460080044027
:101DE00080B582B000AF0120FFF7E4FF0220FFF7CB
:101DF000E1FF8023DB011800FFF7A2FF3B00002278
:101E00001A713B000B4A1A603B001800FFF714F9E7
:101E10000020FFF793F9E0231B021800FFF790FF63
:101E20000120FFF7A9FF044B024A1A60C046BD46D5
:101E300002B080BD001BB700EC00001080B582B07E
:101E400000AF0200FB1D1A70074A8023D358FA1D09
:101E50001278012191400A000349134380228B50DC
:101E6000C046BD4602B080BD0080044080B582B04F
:101E700000AF0200FB1D1A70084A8023D358FA1DD8
:101E80001278012191400A00D24304491340802274
:101E90008B50C046BD4602B080BDC04600800440A5
:101EA00080B500AF1220FFF7C9FF0720FFF7C6FF7C
:101EB0000E4B042200211800FFF75AFC0B4B0022A6
:101EC00001211800FFF754FC084B112205211800CE
:101ED000FFF74EFC054B172206211800FFF748FCC0
:101EE0000720FFF7C3FFC046BD4680BD00C00040CD
:101EF00080B500AF054B064A9A60064B064A1A6049
:101F000001F088F9C046BD4680BDC04600ED00E046
:101F100000000000EC000010001BB70070B50500C9
:101F20000E4C0F48210001F09BF92100280001F020
:101F300097F90C4A111DCB6F013BCB67002B07DBD8
:101F4000936F591C91670A221A7001F06EF970BDE7
:101F500021000A2000F028F8F7E7C046D002001060
:101F60007C4A000058020010202310B50400C2680B
:101F70009A43E2608369826A93420CD000F0BAF817
:101F8000E368074A1A4010231343E360A36AA3617E
:101F90002369E3622360E268024B1340E36010BDF3
:101FA000EFCFFFFFBFBFFFFFF8B5CA684E4B05007C
:101FB00013400C00CB60930602D50800FFF7D4FF56
:101FC000A268E668531C0FDAB3050DD402235B4206
:101FD0009B1AA36090235B021E432368E6605A1C91
:101FE00022601D70E8B20AE0404A3240022A07D05F
:101FF0000023A36080331E43E66001204042F8BD09
:1020000080213B4B090233408B420AD10021200042
:1020100000F048F9E3689B0602D52000FFF7A4FF13
:10202000E6689023F0225B0233431201E36016421C
:1020300010D1606901F0FBF9002820D073051ED58E
:1020400023002433236123600123E36192235B0295
:102050003343E36090210901226826690B4224D0B2
:10206000E16A8A4200D91100891B17D1731CE3620F
:102070002360E3695A1EA26023633570B2E78027AC
:102080007F00380000F0FEF89423E2685B023343DF
:102090001A4320612060E761E260DBE72200300044
:1020A00000F056F80028E1D0A7E7511CE8B2216003
:1020B0001070E26A21688A4200D91100E269891B26
:1020C00022635B0504D40A2802D08A4200DD89E736
:1020D0000023E6622660A3602200300000F038F89A
:1020E000002800D17EE788E7FFFFF7FF8A10000095
:1020F00010A0000070B5040005690168C26A124BA7
:10210000C0680340E36082230340022B02D0012019
:10211000404270BD80235B021840FAD0914200D249
:1021200011008D4208D10020E268084BE56213409F
:102130002560A060E360ECE7491B2200280000F066
:1021400007F80028EFD0E2E7FFFFF7FFFFFFFEFFF1
:10215000F7B5D56801900E0014005769EB0205D55C
:10216000102338001D4301F05FF9A061104B1D42A0
:102170000FD0A169380001F060F9002806DA802349
:102180000120E26840421343E3600FE0094B1D4029
:10219000E56032000199380001F055F943005B0811
:1021A000F61AA3699E19A6610028E8D1FEBDC046B3
:1021B00010000200EFFFFDFFF7B50027304EC51CF1
:1021C0003468AD08B84214D02900EB1C9C460A3193
:1021D0000191002C0FD10C3000F034FA431C08D0D0
:1021E00080239B05036045608460002F46D13060EA
:1021F0001EE00020FEBD80222368520593423AD1A2
:10220000A7686368002F0BD080213A6849058A428D
:1022100006D17A6803339B186360BB68A360EFE75D
:10222000AB4207DB9C4505DB80239B052360200038
:102230000C30DFE7019A934210D9802220008021E0
:10224000920522600C30AA005B1B82184905033BF3
:102250006560A260116053609760CBE7002F0AD1E0
:102260009B00C01A00F0EEF9431CC2D080239B05EE
:1022700023606560DBE72700A468AAE7B860D7E7BA
:102280001003001010B5FFF797FF041E05D11722A9
:10229000034901F0D8F800F0C8FF200010BDC04687
:1022A000914A0000F7B5394BC56804000E00009252
:1022B0001D4201D1022741E043691800019301F05A
:1022C000B6F8071EF6D1009B012B28D0022B2BD08D
:1022D000002BEFD1002EEDDBAB0404D52368E26ABE
:1022E0009A4200D2E362A069B0420EDCE26A23683F
:1022F000934200D21300226919180092891AB14240
:1023000003DB216B4218B2422EDC20231D43002345
:10231000A662A36063601E4B1D40E5600EE02000D6
:1023200000F038F83618D5E7019801F07DF8E2683A
:10233000002805DA802301271343E3603800FEBD3F
:10234000E16A2368994200D90B00A1695B182169F1
:102350005B1A920603D5A26A934200DA1300834205
:1023600000DA0300F618B5E7361AAA0701D5711A84
:10237000A160EA0703D5009A9B1AF31A6360009BD9
:102380009E19202326609D43C5E7C0460300100028
:10239000BFCFF7FFC268930705D1212201200E4B62
:1023A00040421A6070472023134012030AD5002BC5
:1023B00002D0806A0138F5E70368826900699B18DA
:1023C000181AF7E7002B01D0806AEBE703688269EF
:1023D00000699B18181AE5E71403001037B5184C6C
:1023E00018492200002000F04DF9802380225B0074
:1023F000D2000021200000F02FF8134C134D2200D2
:102400002900012000F03EF9802380225B00D200E9
:102410000021200000F020F80D4B1B680193022BD7
:102420000DDD0C4C29002200022000F02BF9802346
:1024300080225B00D2000021200000F00DF837BDA3
:1024400058020010A94A000094020010AB4A000094
:10245000784A0000D0020010F0B5C5680124AE072C
:1024600010D08026B600B24207D08026F600B242D5
:102470000AD080267600B24204D1084F5E1E0124A5
:10248000BE4204D92000F0BD0100230024311543D1
:1024900001610160C361C5600024F3E7FEFFFF0036
:1024A000F0B5002285B0002306000F0000F0C8FC44
:1024B000002817D0002200233000390000F092FCE1
:1024C00000280BD021223D4B1A6080221206944630
:1024D0003B4B1E685B68009363441F00300039006B
:1024E00005B0F0BD7900490D039103983549844644
:1024F0006144029134493548394008430500344A63
:10250000344B3000290000F073F9334A334B00F0AC
:10251000B3FB34000F00060002000B00200029006E
:1025200000F028FA32003B0000F0A6FB0022274B07
:1025300000F05EF906000F0002000B0020002900E9
:1025400000F018FA32003B0000F096FB00221F4B0F
:1025500000F04EF906000F0002000B0020002900D9
:1025600000F008FA32003B0000F086FB174B002217
:1025700000F03EF9029B00900191134DDB070AD554
:10258000174A184B00F034F9174A039B9446009001
:102590000191634402930199009A019B4E000299B4
:1025A000760DC80F44186410A419019964056408D5
:1025B0000D4025432B0016008FE7C0461403001082
:1025C0005034000002FCFFFFFFFF0F800000E03FDF
:1025D00018096D3997E2E23FF7CC920035B5DA3F42
:1025E000CD3B7F669EA0E63F03FCFFFF032110B5B5
:1025F000421C084218D1114C0368114959189943DB
:10260000214219D0DCB2411C002C0BD0FF24240243
:10261000811C234206D0FF2109040B40591E8B4127
:10262000C318D91C881A04E0431C0078002801D183
:10263000981A10BD1800DCE70430DDE78080808048
:10264000FFFEFEFE70B50C4D2B68002B01D10B4B2D
:102650002B600323C41C2E689C433419200000F017
:102660009BF8002802D12C60300070BD0C2201269E
:10267000034B76421A60F7E70C03001024030010A6
:1026800014030010F7B50D0001901000140000F0C5
:1026900033F82B78722B1FD0772B04D0612B26D1E7
:1026A0000823144A01E0042302220220691C0327A4
:1026B00084460426012508782B2810D0622813D0E0
:1026C000E260019A62611B0704D50222002120000A
:1026D000FFF7E8FD2000FEBD00230122E5E760468C
:1026E0003A4303430131E6E732432B43FAE7002440
:1026F000F0E7C04602800000F0B5C46889B005006C
:10270000A30722D0230718D44769066900F022F8EE
:10271000380000F086FE230502D5300000F08AFD67
:102720000B4BA40DA4059C4207D12022296A6846C0
:1027300000F086FE684600F0C7FD3C22002128001C
:1027400000F074FD002009B0F0BD01204042FAE71E
:10275000000080AD73B5002813D000F027F8050005
:10276000280076BD30006043094BC01800F01EF809
:10277000002801D001256D420134019BA342F1DC08
:10278000EEE7044B04001B68050001933C26F4E7C8
:1027900058020010784A0000034B0200181E02D0B5
:1027A00000209A42404170472405001070B503266E
:1027B000C36804001E4011D09B0611D5856AFFF73F
:1027C000D3FBE268094B20001340E360FFF792FC63
:1027D0000022060029002000FFF764FD300070BDD4
:1027E000036882699D180369ED1AEAE7FFCFFFFFCE
:1027F000F0B514001A004A40D20F8BB00600D20781
:102800004800400D039200D186E0514DA84200D10E
:1028100082E05A00520D00D17EE0AA4200D17BE056
:10282000DF02630D1F43802380251B061F43002307
:102830000903090B6D030D438218069228003A0024
:10284000190000F0C2FDE3021A0007930023049070
:1028500005912800190000F0B8FD002300910193B4
:102860000099019A049B059C5B18544108930994B4
:1028700000233200049019000798059300F0A5FD8D
:102880000D00019B320004001900380000F09DFD8E
:102890002A00019B019F80185941049A059B8018CA
:1028A0005941089A099B0E00B6185F412949069ABA
:1028B000294BA408204351189F420DD81300274AE2
:1028C000C40F94466344320019003B0092197B41C7
:1028D000144326001F0040000023C20FB6185F41BA
:1028E000802233001206904203D1012332009A4322
:1028F00013001B4A914206D81800039A0C053A436C
:10290000A1180BB0F0BD002903DB039A154B1A4345
:10291000039200200399F4E7134A4900914211D829
:1029200058009042F5D9114A5B0093420DD8490DE9
:10293000002000290AD05B0D08D00A4B039A1A43E5
:102940001100DEE7094A9142EDD000200849D8E79E
:10295000FF07000001FCFFFFFFFF0F0000FCFFFF6F
:10296000FD0700000000F07FFFFFDFFF0000E0FF39
:102970000000F87FF7B51C004D004C406D0D019430
:1029800062D0474FBD425FD05C00640D5CD0BC425A
:102990005AD02F1BC902440D214380242406A4468B
:1029A000C4026046DB020843510D0B43614605003B
:1029B0000B43D202834202D81BD1A24219D9394912
:1029C00050087F18D90708433522590800235B00B7
:1029D000A94206D801D1A04203D80126241A8D416C
:1029E000334324196D41561E212A0CD10093320025
:1029F000EDE7E9078C4666466008690806430D0066
:102A000034002949DCE7321EE1D1A94208D801D1BE
:102A1000A04205D801335A425A4100998A180092BF
:102A2000019A2249D20FD2078F4205D83F05009C58
:102A3000BA181119180005E0002F01DB1C4B1A43CE
:102A40000020110003B0F0BD1A4C4800A04202D88B
:102A50005A00A24202D900201749F3E70B435B005A
:102A60005B0D5B0501D11449E4E7019BDF0FFF0714
:102A7000430D5B053900002BDCD0530D5B0503D102
:102A80000B4A3A431100D5E7A24204D0084B00207C
:102A90003B431900D6E79042DDD00020D2E7C04684
:102AA000FF070000FD030000FE030000FD0700001B
:102AB0000000F07F0000E0FF0000F87FF7B50400A1
:102AC000060010001A001F000D004A4008D580259E
:102AD0002D0602005B19200000F0CEF803B0F0BD17
:102AE0008B4203D8A0420AD38B4208D180231B0615
:102AF000D3183200594006000D0010007B405A4A9E
:102B00005A492F0D1C0D3C1B3A408A4200D1A1E0CE
:102B1000944200D199E0802229031B035203090B40
:102B20001B0B114313431F2C4FD81A00E240891A84
:102B30000200E24001922022141BA340019A1A4392
:102B4000B21A9642B64103007642891BA34005D0D3
:102B5000013A501C444260415B42091AC0204003C4
:102B6000014250D14900D40F0C435200DB0F1343F4
:102B700022001A43023F111E57D0620B1CD0620C78
:102B800004D1190F24010C431B01043FE20C04D1B2
:102B9000990FA4000C439B00023F220D04D1D90FD2
:102BA00064000C435B00013FFA0AED0FAA4209D111
:102BB0003F053919180091E7190E24020C431B0236
:102BC000083FDAE70020E90788E73200352C1AD8F9
:102BD0001D00203CE540721B20252D1BAB4005004D
:102BE0009642B641E5407642891B2B43000608D049
:102BF000FF200343013A501C444260415B42091AE2
:102C000001E0002BF6D1C80209D4013F7C050ED0AB
:102C1000D00F490001435200D80F02435B00144C0F
:102C20003F050C40002B05DBE119100056E7390584
:102C3000200053E7013251425141641880210906B6
:102C40008B42F1D101239A43EEE7211EF0D02900F7
:102C5000300043E72B030020002B01D005493DE75E
:102C6000002CF4D10349E3E7FFF7FFFFFF07000063
:102C7000FFFFEFFF0000F87FF7B51F000C00009189
:102C8000050001901E004F4007D5802636069D198D
:102C90002B00FFF713FF03B0F0BD8B4203D91C00DC
:102CA0001500009E019A3A483A4B210D084098427F
:102CB00065D0330DCB1A83425BD0802024033603CA
:102CC0004003240B360B044306431F2B26D8300049
:102CD000D840202724181000D840FB1A9E400643F5
:102CE000AD19B542B6419A407642A4191600A30226
:102CF0002ED501356B426B41E418002E01D1022321
:102D00009D4362080B059B18234A580090421BD82C
:102D10006D08E4072C4319002000BCE7352BE6D8EA
:102D20003000203BD8402D18854280414042241875
:102D30002020C01A86401000D84012060643002A00
:102D4000D5D0FF231E43D2E74B1C00201905A2E774
:102D50000139002E09DA01356B426B41E4188023FA
:102D60001B069E4201D101239D430B051919280022
:102D700091E7002B09D1E40FE10718008BE723034B
:102D80000020002B01D0054985E72100EFE7C04670
:102D9000FFF7FFFFFF070000FFFFDFFF0000F87FE6
:102DA000430DC80203438020000618430A4B0A0D56
:102DB0009B1AD840FF2B0ED9E022D200404213428A
:102DC00009D000204B0006D5044A4B00934202D89C
:102DD000034BC80FC01870471E0400000000E0FF3E
:102DE000FFFFFF7FF0B5040018000E001D00084330
:102DF000124F0DD45B000020BB4208D80130A9421D
:102E000005D30020A94202D1944280414042F0BD46
:102E100049000020B942FAD85B00BB42F7D82143F1
:102E2000814202D113438342F1D00120AE42EED859
:102E30000020AE42EBD1A2428041E7E70000E0FF74
:102E4000F7B51C000E001D0001920C43124F0ED46A
:102E50005B000024BB4208D80134A94205D30024FA
:102E6000A94202D11300834264412000FEBD490003
:102E70000024B942F9D85B00BB42F6D80134AE4217
:102E8000F3D801D19042F0D200240143A142ECD109
:102E900013435C425C41E8E70000E0FF80B582B08C
:102EA00000AF0200FB1D1A70FB1D1B785BB2803364
:102EB00001D1012306E0FB1D1B785BB21800FDF772
:102EC0005DFA00231800BD4602B080BD80B584B015
:102ED00000AFF860B9607A601A00FB1C1A70F968DC
:102EE000BA681300DB009B1A9B009B18CA187B680A
:102EF000D318FA1C12781A70C046BD4604B080BDC3
:102F000080B582B000AF78607B689B681800BD46D2
:102F100002B080BD80B582B000AF786039603B6898
:102F2000DB05DA0D7B68DA60C046BD4602B080BDC5
:102F300080B582B000AF786039603B68DB05DA0DA0
:102F40007B681A61C046BD4602B080BD80B582B0C4
:102F500000AF78600A00FB1C1A70FB1C1A787B68B3
:102F6000DA61C046BD4602B080BD80B582B000AF18
:102F700078607B685B69DBB21800BD4602B080BD3B
:102F800080B500AFA023180601230D220021FFF712
:102F90009DFFC046BD4680BD80B500AFA02318068A
:102FA00000230D220021FFF791FFC046BD4680BDE2
:102FB00080B586B000AF786000237B610023FB60A2
:102FC00000233B617B681800FEF7EEF80300FB600E
:102FD00000233B6105E07B6919337B613B69013369
:102FE0003B613A69FB689A42F5D37B691800BD469C
:102FF00006B080BD80B584B000AFF860B9607A607B
:103000003B603B681B78002B17D1FB68BA688021B6
:1030100009018C4662449200D35801217A6891409C
:103020000A00D2431A401100FB68BA6880200001F0
:10303000844662449200D15032E03B685B78002BBA
:103040000CD101227B689A401100FB68BA688A2083
:103050000001844662449200D1500BE001227B685B
:103060009A401100FB68BA688820000184466244D7
:103070009200D150FB68BA68802109018C466244F5
:103080009200D25801217B6899400B001A4311002D
:10309000FB68BA6880200001844662449200D150E7
:1030A000C046BD4604B080BD80B582B000AF786038
:1030B0000A00FB1C1A70FB1C1B7801229A407B68DB
:1030C0005A62C046BD4602B080BD80B582B000AF36
:1030D0000200FB1D1A70FB1D1B781800FEF79EFAFC
:1030E000FB1D1B781800FEF7BDFAC046BD4602B0B6
:1030F00080BD80B582B000AF78607B681B68042219
:1031000013405A1E9341DBB21800BD4602B080BD89
:1031100080B582B000AF78600A00FB1C1A70FB1CFF
:103120001B78002B0DD07B681B6801221A437B683B
:103130001A607B685B68402293431A007B685A6080
:1031400005E07B685B6840221A437B685A60C04692
:10315000BD4602B080BD80B582B000AF78600A0085
:10316000FB1C1A70FB1C1B78002B06D07B681B68AD
:1031700001221A437B681A600BE07B685B6840227F
:10318000134006D07B681B68012293431A007B68BA
:103190001A60C046BD4602B080BD80B500AFFEF7E4
:1031A0001FFEC046BD4680BD80B582B000AF3B1D4E
:1031B00001221A703B1D00225A70A0231B06002119
:1031C0001800FEF7EDF83A1DA023180613000D2293
:1031D0000021FFF70FFF3B0001221A703B00002285
:1031E0005A70A0231B0600211800FEF7D9F83A00F8
:1031F000A023180613000F220021FFF7FBFEC04694
:10320000BD4602B080BD80B500AFFEF749FEC046A6
:10321000BD4680BD80B500AFC046BD4680BD10B57F
:10322000FFF7DCF8FDF7E2FC10BDFEE710B500F09B
:10323000E3F810BD10B5002811D080210C384905E5
:1032400001608268002A0AD013688B4207D1436864
:10325000546803331B19436093688360F1E710BD22
:1032600070B50D000400207800280FD0AB68013B3A
:10327000AB60002B05DB2B685A1C2A6018700134E8
:10328000F1E72900FEF790FE431CF8D170BD030062
:103290000B4330B59B0707D00024A2420BD100207E
:1032A0000FE004300431043A032AF5D903680C68AE
:1032B000A342F6D0F0E7035D651C0C5DA34201D08C
:1032C000181B30BD2C00E8E710B50400FFF78EF99D
:1032D0000100200000F0AEF810BD03000B4321D424
:1032E000002931D00122D207030901E009011209A6
:1032F0009942FBD9430801E0490052089942FBD9A1
:1033000000E04908401A07D35241FAD3014610465B
:10331000704749084018F7D29218FAD3401801466E
:1033200010467047CB0F00D04942021000D54042F2
:10333000534008B5FFF7D4FF0CBC521000D34042F5
:10334000002A00D549421847F446002000F001F851
:103350006047704710B5002804D103000200100038
:10336000190010BD030C10D10004030E11D100028E
:10337000030F12D10001830F13D18000002814DB4A
:103380004000C41263184205E9E780235B04C918B2
:10339000EBE780231B04C918EAE78023DB03C91885
:1033A000E9E780239B03C918E8E780235B03C9187A
:1033B000E7E7802310B5C10FDB05C907C918C3179C
:1033C000C0185840FFF7C6FF10BD10B54343514326
:1033D000C918040C130C5C43091992B2040C544331
:1033E00080B2434350432204240C801861411A04E4
:1033F0001B0C8018594110BD8446043A09D3830739
:1034000007D109060B0A19430B0C1943043A02C0F1
:10341000FCD2043203D001700130013AFBD1604686
:103420007047012040427047012040427047012010
:10343000404270470120404270470120404270479F
:1034400001204042704710007047FFFFFFFFFFFF61
:10345000FFFFFFFFFFFFEF7F2B434D5449000000AC
:103460002B434D475200FFFF2E2E2F647269766565
:1034700072732F66736C5F636C6F636B2E633A3885
:1034800033203A2062617365000000002E2E2F6405
:103490007269766572732F66736C5F636C6F636BB2
:1034A0002E633A323532203A20636F6E6669672D9B
:1034B0003E74617267657446726571203C3D2053AD
:1034C0005953504C4C5F4D41585F4F5554505554D3
:1034D0005F465245515F485A000000002E2E2F646F
:1034E0007269766572732F66736C5F636C6F636B62
:1034F0002E633A323635203A20696E707574467202
:10350000657120213D203055000000002E2E2F64D3
:103510007269766572732F66736C5F636C6F636B31
:103520002E633A333237203A207764744F73634402
:103530006976203E3D20325500FFFFFF4A0F000014
:10354000540F0000860F00005E0F0000680F00009F
:103550007C0F0000860F0000720F00002E2E2F64DB
:103560007269766572732F66736C5F646D612E6825
:103570003A323638203A206368616E6E656C203CC2
:103580002046534C5F464541545552455F444D419A
:103590005F4E554D4245525F4F465F4348414E4E48
:1035A000454C536E28626173652900002E2E2F64EE
:1035B0007269766572732F66736C5F646D612E68D5
:1035C0003A323830203A206368616E6E656C203C78
:1035D0002046534C5F464541545552455F444D414A
:1035E0005F4E554D4245525F4F465F4348414E4EF8
:1035F000454C536E28626173652900002E2E2F649E
:103600007269766572732F66736C5F646D612E6884
:103610003A333034203A206368616E6E656C203C2A
:103620002046534C5F464541545552455F444D41F9
:103630005F4E554D4245525F4F465F4348414E4EA7
:10364000454C536E28626173652900002E2E2F644D
:103650007269766572732F66736C5F646D612E6834
:103660003A333136203A206368616E6E656C203CD7
:103670002046534C5F464541545552455F444D41A9
:103680005F4E554D4245525F4F465F4348414E4E57
:10369000454C536E28626173652900002E2E2F64FD
:1036A0007269766572732F66736C5F646D612E68E4
:1036B0003A333238203A206368616E6E656C203C84
:1036C0002046534C5F464541545552455F444D4159
:1036D0005F4E554D4245525F4F465F4348414E4E07
:1036E000454C536E28626173652900002E2E2F64AD
:1036F0007269766572732F66736C5F646D612E6894
:103700003A333431203A206368616E6E656C203C38
:103710002046534C5F464541545552455F444D4108
:103720005F4E554D4245525F4F465F4348414E4EB6
:10373000454C536E28626173652900002E2E2F645C
:103740007269766572732F66736C5F646D612E6348
:103750003A313130203A20696E7374616E636520AE
:103760003C2041525241595F53495A4528735F6486
:103770006D61426173657329000000002E2E2F6475
:103780007269766572732F66736C5F646D612E6308
:103790003A313534203A20286368616E6E656C20BA
:1037A0003C2046534C5F464541545552455F444D7D
:1037B000415F4E554D4245525F4F465F4348414E33
:1037C0004E454C536E2862617365292920262620B8
:1037D000284E554C4C20213D2074726967676572F4
:1037E000290000002E2E2F647269766572732F6691
:1037F000736C5F646D612E633A313733203A206316
:1038000068616E6E656C203C2046534C5F464541B6
:10381000545552455F444D415F4E554D4245525FB0
:103820004F465F4348414E4E454C536E286261738C
:10383000652900002E2E2F647269766572732F66DB
:10384000736C5F646D612E633A323037203A2078B2
:1038500066657263666720213D204E554C4C000022
:103860002E2E2F647269766572732F66736C5F6497
:103870006D612E633A323039203A202878666572BD
:103880006366672D3E737263496E63203D3D203051
:1038900029207C7C2028786665726366672D3E73DC
:1038A0007263496E63203D3D203129207C7C2028B5
:1038B000786665726366672D3E737263496E632036
:1038C0003D3D203229207C7C202878666572636625
:1038D000672D3E737263496E63203D3D203429009D
:1038E0002E2E2F647269766572732F66736C5F6417
:1038F0006D612E633A323131203A20287866657244
:103900006366672D3E647374496E63203D3D2030CD
:1039100029207C7C2028786665726366672D3E646A
:103920007374496E63203D3D203129207C7C202822
:10393000786665726366672D3E647374496E6320B2
:103940003D3D203229207C7C2028786665726366A4
:10395000672D3E647374496E63203D3D2034290019
:103960002E2E2F647269766572732F66736C5F6496
:103970006D612E633A323133203A202878666572C1
:103980006366672D3E627974655769647468203D8B
:103990003D203129207C7C2028786665726366672B
:1039A0002D3E627974655769647468203D3D20320C
:1039B00029207C7C2028786665726366672D3E62CC
:1039C0007974655769647468203D3D20342900008E
:1039D0002E2E2F647269766572732F66736C5F6426
:1039E0006D612E633A323135203A20786665726314
:1039F00066672D3E7472616E73666572436F756E95
:103A000074203C3D20444D415F4D41585F5452412C
:103A10004E534645525F434F554E54002E2E2F6451
:103A20007269766572732F66736C5F646D612E6365
:103A30003A323530203A20284E554C4C20213D203A
:103A40006465736329202626202830203D3D2028E8
:103A500075696E7433325F74296465736320252041
:103A600031362920262620284E554C4C20213D2039
:103A70007866657263666729000000002E2E2F6449
:103A80007269766572732F66736C5F646D612E6305
:103A90003A323531203A20284E554C4C20213D20D9
:103AA0007372634164647229202626202830203DE9
:103AB0003D202875696E7433325F742973726341D7
:103AC000646472202520786665726366672D3E62A5
:103AD0007974655769647468290000002E2E2F647C
:103AE0007269766572732F66736C5F646D612E63A5
:103AF0003A323532203A20284E554C4C20213D2078
:103B00006473744164647229202626202830203D85
:103B10003D202875696E7433325F74296473744173
:103B2000646472202520786665726366672D3E6244
:103B30007974655769647468290000002E2E2F641B
:103B40007269766572732F66736C5F646D612E6344
:103B50003A323533203A20284E554C4C203D3D20FA
:103B60006E6578744465736329207C7C202830203E
:103B70003D3D202875696E7433325F74296E657817
:103B80007444657363202520313629002E2E2F645E
:103B90007269766572732F66736C5F646D612E63F4
:103BA0003A323636203A204E554C4C20213D206882
:103BB000616E646C650000002E2E2F64726976655C
:103BC00072732F66736C5F646D612E633A3237389F
:103BD000203A20284E554C4C20213D2068616E64CF
:103BE0006C652920262620286368616E6E656C202E
:103BF0003C2046534C5F464541545552455F444D29
:103C0000415F4E554D4245525F4F465F4348414EDE
:103C10004E454C536E2862617365292900000000EF
:103C20002E2E2F647269766572732F66736C5F64D3
:103C30006D612E633A323936203A2068616E646CC9
:103C40006520213D204E554C4C0000002E2E2F6447
:103C50007269766572732F66736C5F646D612E6333
:103C60003A333131203A20284E554C4C20213D200A
:103C7000636F6E6669672920262620284E554C4CB6
:103C800020213D207372634164647229202626201E
:103C9000284E554C4C20213D20647374416464725D
:103CA000290000002E2E2F647269766572732F66CC
:103CB000736C5F646D612E633A333132203A202891
:103CC000627974655769647468203D3D203129200C
:103CD0007C7C2028627974655769647468203D3D56
:103CE000203229207C7C20286279746557696474AD
:103CF00068203D3D203429002E2E2F6472697665A0
:103D000072732F66736C5F646D612E633A33313664
:103D1000203A2028786665725F636F756E74203C68
:103D20003D20444D415F4D41585F5452414E5346F2
:103D300045525F434F554E542920262620283020D7
:103D40003D3D207472616E7366657242797465736D
:103D50002025206279746557696474682900000021
:103D60002E2E2F647269766572732F66736C5F6492
:103D70006D612E633A333539203A20284E554C4C2C
:103D800020213D2068616E646C652920262620284C
:103D90004E554C4C20213D20636F6E6669672900AB
:103DA0002E2E2F647269766572732F66736C5F6452
:103DB0006D612E633A333836203A204E554C4C20F4
:103DC000213D2068616E646C6500FFFF2E2E2F641C
:103DD0007269766572732F66736C5F6770696F2E98
:103DE000633A3630203A20706F7274203C20415282
:103DF0005241595F53495A4528735F6770696F4351
:103E00006C6F636B4E616D652900FFFF2E2E2F6472
:103E10007269766572732F66736C5F726573657411
:103E20002E633A3632203A20626974506F73203C18
:103E300020333275000000002E2E2F6472697665E3
:103E400072732F66736C5F72657365742E633A3795
:103E500034203A20626974506F73203C20333275ED
:103E600000FFFFFF2E2E2F647269766572732F6636
:103E7000736C5F7370692E683A333938203A204E7C
:103E8000554C4C20213D2062617365002E2E2F641D
:103E90007269766572732F66736C5F7370692E68D2
:103EA0003A343330203A204E554C4C20213D20628C
:103EB000617365002E2E2F647269766572732F66AA
:103EC000736C5F7370692E683A343434203A204E34
:103ED000554C4C20213D2062617365002E2E2F64CD
:103EE0007269766572732F66736C5F7370692E6387
:103EF0003A313631203A204E554C4C20213D20623B
:103F0000617365002E2E2F647269766572732F6659
:103F1000736C5F7370692E633A313733203A2066D1
:103F2000616C7365000000002E2E2F647269766547
:103F300072732F66736C5F7370692E633A31383613
:103F4000203A204E554C4C20213D20636F6E66690F
:103F5000670000002E2E2F647269766572732F66DB
:103F6000736C5F7370692E633A313934203A204E96
:103F7000554C4C20213D20636F6E66696700000040
:103F80002E2E2F647269766572732F66736C5F7361
:103F900070692E633A323136203A202128284E5556
:103FA0004C4C203D3D206261736529207C7C20289B
:103FB0004E554C4C203D3D20636F6E66696729204D
:103FC0007C7C202830203D3D20737263436C6F63FE
:103FD0006B5F487A292900002E2E2F64726976655E
:103FE00072732F66736C5F7370692E633A32353665
:103FF000203A204E554C4C20213D20636F6E66695F
:10400000670000002E2E2F647269766572732F662A
:10401000736C5F7370692E633A323731203A202116
:1040200028284E554C4C203D3D2062617365292067
:104030007C7C20284E554C4C203D3D20636F6E66A5
:1040400069672929000000002E2E2F6472697665A9
:1040500072732F66736C5F7370692E633A333030FE
:10406000203A204E554C4C20213D20626173650062
:104070002E2E2F647269766572732F66736C5F7370
:1040800070692E633A333133203A202128284E5567
:104090004C4C203D3D206261736529207C7C2028AA
:1040A00030203D3D2062617564726174655F4270CD
:1040B0007329207C7C202830203D3D20737263438F
:1040C0006C6F636B5F487A29290000002E2E2F64E5
:1040D0007269766572732F66736C5F7370692E6395
:1040E0003A333330203A204E554C4C20213D20624B
:1040F000617365002E2E2F647269766572732F6668
:10410000736C5F7370692E633A333436203A20281B
:104110004E554C4C20213D206261736529207C7CEA
:1041200020284E554C4C20213D2068616E646C6502
:10413000290000002E2E2F647269766572732F6637
:10414000736C5F7370692E633A333739203A2021DC
:1041500028284E554C4C203D3D2062617365292036
:104160007C7C20284E554C4C203D3D207866657265
:1041700029207C7C2028284E554C4C203D3D207821
:104180006665722D3E74784461746129202626206C
:10419000284E554C4C203D3D20786665722D3E7270
:1041A0007844617461292929000000002E2E2F64B3
:1041B0007269766572732F66736C5F7370692E63B4
:1041C0003A343637203A202128284E554C4C203D91
:1041D0003D206261736529207C7C20284E554C4C23
:1041E000203D3D2068616E646C6529207C7C202820
:1041F0004E554C4C203D3D207866657229207C7CD4
:104200002028284E554C4C203D3D20786665722D67
:104210003E7478446174612920262620284E554C2E
:104220004C203D3D20786665722D3E727844617465
:1042300061292929000000002E2E2F6472697665FD
:1042400072732F66736C5F7370692E633A35353005
:10425000203A204E554C4C20213D2068616E646C04
:10426000650000002E2E2F647269766572732F66CA
:10427000736C5F7370692E633A353730203A204E85
:10428000554C4C20213D2068616E646C6500000037
:104290002E2E2F647269766572732F66736C5F734E
:1042A00070692E633A353831203A20284E554C4CEF
:1042B00020213D20626173652920262620284E5545
:1042C0004C4C20213D2068616E646C652900000023
:1042D0002E2E2F647269766572732F66736C5F730E
:1042E00070692E633A363138203A20284E554C4CAE
:1042F00020213D20626173652920262620284E5505
:104300004C4C20213D2068616E646C6529000000E2
:104310002E2E2F647269766572732F66736C5F73CD
:1043200070692E633A363730203A20735F737069B4
:1043300048616E646C655B305D0000002E2E2F645A
:104340007269766572732F66736C5F7370692E6322
:104350003A363738203A20735F73706948616E646B
:104360006C655B315D00FFFF2E2E2F6472697665F0
:1043700072732F66736C5F73776D2E633A353720D7
:104380003A204E554C4C20213D206261736500005F
:104390002E2E2F647269766572732F66736C5F734D
:1043A000776D2E633A3538203A2066756E63203C6F
:1043B000206B53574D5F4D4F5641424C455F4E5514
:1043C0004D5F46554E4353002E2E2F64726976651D
:1043D00072732F66736C5F73776D2E633A39372073
:1043E0003A204E554C4C20213D20626173650000FF
:1043F0002E2E2F647269766572732F66736C5F73ED
:10440000776D2E633A3938203A202866756E63201E
:104410003E203029207C7C2066756E63203C206B1A
:1044200053574D5F464958454450494E5F4E554D90
:104430005F46554E435300FF004006400080064053
:1044400000C006400E0F10FF030405FF2E2E2F6440
:104450007269766572732F66736C5F7573617274BF
:104460002E633A3931203A2066616C736500000092
:104470002E2E2F647269766572732F66736C5F756A
:10448000736172742E633A313030203A204E554CAD
:104490004C20213D2068616E646C65002E2E2F64D7
:1044A0007269766572732F66736C5F75736172746F
:1044B0002E633A313138203A204E554C4C20213D64
:1044C0002068616E646C65002E2E2F6472697665BB
:1044D00072732F66736C5F75736172742E633A31F9
:1044E0003334203A204E554C4C20213D20626173DC
:1044F000650000002E2E2F647269766572732F6638
:10450000736C5F75736172742E633A313335203A80
:10451000204E554C4C20213D2068616E646C650036
:104520002E2E2F647269766572732F66736C5F75B9
:10453000736172742E633A313336203A204E554CF3
:104540004C20213D2072696E674275666665720077
:104550002E2E2F647269766572732F66736C5F7589
:10456000736172742E633A313531203A204E554CC6
:104570004C20213D20626173650000002E2E2F64C7
:104580007269766572732F66736C5F75736172748E
:104590002E633A313532203A204E554C4C20213D85
:1045A0002068616E646C65002E2E2F6472697665DA
:1045B00072732F66736C5F75736172742E633A3118
:1045C0003730203A202128284E554C4C203D3D20A4
:1045D0006261736529207C7C20284E554C4C203D1F
:1045E0003D20636F6E66696729207C7C202830201F
:1045F0003D3D20737263436C6F636B5F487A29297A
:10460000000000002E2E2F647269766572732F668B
:10461000736C5F75736172742E633A323034203A72
:10462000204E554C4C20213D2062617365000000F6
:104630002E2E2F647269766572732F66736C5F75A8
:10464000736172742E633A323138203A204E554CE1
:104650004C20213D20636F6E666967002E2E2F640B
:104660007269766572732F66736C5F7573617274AD
:104670002E633A323334203A202128284E554C4CB0
:10468000203D3D206261736529207C7C20283020FC
:104690003D3D2062617564726174655F427073298B
:1046A000207C7C202830203D3D20737263436C6F5A
:1046B000636B5F487A2929002E2E2F647269766514
:1046C00072732F66736C5F75736172742E633A3206
:1046D0003939203A202128284E554C4C203D3D2088
:1046E0006261736529207C7C20284E554C4C203D0E
:1046F0003D20646174612929000000002E2E2F6482
:104700007269766572732F66736C5F75736172740C
:104710002E633A333230203A202128284E554C4C13
:10472000203D3D206261736529207C7C20284E5508
:104730004C4C203D3D20646174612929000000003B
:104740002E2E2F647269766572732F66736C5F7597
:10475000736172742E633A333637203A2021282849
:104760004E554C4C203D3D206261736529207C7C78
:1047700020284E554C4C203D3D2068616E646C6590
:10478000292900002E2E2F647269766572732F66B8
:10479000736C5F75736172742E633A333931203AEA
:1047A000202128284E554C4C203D3D2062617365E8
:1047B00029207C7C20284E554C4C203D3D206861B2
:1047C0006E646C6529207C7C20284E554C4C203D25
:1047D0003D20786665722929000000002E2E2F6486
:1047E0007269766572732F66736C5F75736172742C
:1047F0002E633A333933203A2021282830203D3D9A
:1048000020786665722D3E6461746153697A65290A
:10481000207C7C20284E554C4C203D3D2078666500
:10482000722D3E6461746129290000002E2E2F64D0
:104830007269766572732F66736C5F7573617274DB
:104840002E633A343136203A204E554C4C20213DCF
:104850002068616E646C65002E2E2F647269766527
:1048600072732F66736C5F75736172742E633A3462
:104870003237203A204E554C4C20213D2068616E45
:10488000646C65002E2E2F647269766572732F66D4
:10489000736C5F75736172742E633A343238203AE8
:1048A000204E554C4C20213D20636F756E740000E6
:1048B0002E2E2F647269766572732F66736C5F7526
:1048C000736172742E633A343534203A20212828DB
:1048D0004E554C4C203D3D206261736529207C7C07
:1048E00020284E554C4C203D3D2068616E646C651F
:1048F00029207C7C20284E554C4C203D3D2078665C
:1049000065722929000000002E2E2F6472697665D9
:1049100072732F66736C5F75736172742E633A34B1
:104920003536203A2021282830203D3D2078666504
:10493000722D3E6461746153697A6529207C7C2004
:10494000284E554C4C203D3D20786665722D3E64C6
:1049500061746129290000002E2E2F64726976652A
:1049600072732F66736C5F75736172742E633A3560
:104970003431203A204E554C4C20213D2068616E48
:10498000646C65002E2E2F647269766572732F66D3
:10499000736C5F75736172742E633A353535203AE6
:1049A000204E554C4C20213D2068616E646C6500A2
:1049B0002E2E2F647269766572732F66736C5F7525
:1049C000736172742E633A353536203A204E554C59
:1049D0004C20213D20636F756E7400002E2E2F64D5
:1049E0007269766572732F66736C5F75736172742A
:1049F0002E633A353731203A20284E554C4C202131
:104A00003D20626173652920262620284E554C4C96
:104A100020213D2068616E646C6529002E2E2F6276
:104A20006F6172642F626F6172642E633A35382051
:104A30003A206B5374617475735F53756363657368
:104A400073203D3D20726573756C74002E2E2F64AB
:104A50007269766572732F66736C5F636C6F636BDC
:104A60002E683A333837203A2076616C75652021FC
:104A70003D20305500FFFFFF030000002A2A2A20B6
:104A8000617373657274206661696C6564203A2095
:104A9000002A2A2A205F437379735F616C6C6F630D
:104AA000206661696C65640A0072007700FFFFFF91
:104AB0000D0A596F75206861766520696E7075748E
:104AC00020746F6F206D616E79206368617261631D
:104AD000746572732C20506C6561736520747279F3
:104AE00020616761696E210D0A00FFFF4154563055
:104AF00045302B434D47443D312C343B2B434D47F0
:104B0000463D313B2B4950523D393630300D0A007D
:104B100041542B434D47523D300D0A00001BB70056
:04000003000000D524
:00000001FF
