:1000000000200010D50000001901000029080000A0
:10001000000000000000000000000000E9D5FFEF34
:100020000000000000000000000000001D010000B2
:1000300000000000000000001F0100009906000001
:10004000250100002D01000035010000F905000028
:10005000010300004D010000550100005D0100009A
:1000600065010000810C0000750100007D010000A9
:10007000850100008D010000950100009D01000038
:10008000A5010000AD010000B5010000BD010000A8
:10009000C5010000CD010000D5010000DD01000018
:1000A000E5010000ED010000F5010000FD01000088
:1000B000050200000D020000150200001D020000F4
:1000C000E41F00008000001070000000F00000102D
:1000D0001802000010B572B600F088FF0B4C0C4BF4
:1000E0009C4206D30B4B9C420AD362B601F048FEF9
:1000F000FEE7A2686168206800F094F80C34EEE72F
:100100006168206800F09AF80834EBE7C00000004E
:10011000CC000000D4000000FEE7FEE7FEE7FEE7AB
:10012000FEE7FEE710B500F0C3FD10BD10B500F00E
:10013000CBFD10BD10B5FFF7F4FF10BD10B500F0FA
:100140008FFE10BD10B500F099FE10BD10B500F087
:10015000A3FE10BD10B5FFF7E4FF10BD10B500F011
:10016000EBFC10BD10B500F0DBFC10BD10B5FFF7C7
:10017000D8FF10BD10B5FFF7D4FF10BD10B5FFF7C5
:10018000D0FF10BD10B5FFF7CCFF10BD10B5FFF7C5
:10019000C8FF10BD10B5FFF7C4FF10BD10B5FFF7C5
:1001A000C0FF10BD10B5FFF7BCFF10BD10B5FFF7C5
:1001B000B8FF10BD10B5FFF7B4FF10BD10B5FFF7C5
:1001C000B0FF10BD10B500F08DFC10BD10B500F0F3
:1001D000BFFC10BD10B5FFF7A4FF10BD10B5FFF7B1
:1001E000A0FF10BD10B500F0C9FC10BD10B500F0A7
:1001F000DBFC10BD10B500F0EDFC10BD10B500F03B
:10020000FFFC10BD10B500F011FD10BD10B5FFF7DB
:1002100088FF10BD10B5FFF784FF10BD10B5FFF7C4
:1002200080FF10BD030030B5091ACD181C1AA24278
:1002300000D830BD1C6804332C60F6E710B503000D
:1002400000241A1A914200D810BD1C600433F8E74C
:10025000FFFFFFFFFFFFFFFFFFFFFFFFFFFFFFFFAE
:10026000FFFFFFFFFFFFFFFFFFFFFFFFFFFFFFFF9E
:10027000FFFFFFFFFFFFFFFFFFFFFFFFFFFFFFFF8E
:10028000FFFFFFFFFFFFFFFFFFFFFFFFFFFFFFFF7E
:10029000FFFFFFFFFFFFFFFFFFFFFFFFFFFFFFFF6E
:1002A000FFFFFFFFFFFFFFFFFFFFFFFFFFFFFFFF5E
:1002B000FFFFFFFFFFFFFFFFFFFFFFFFFFFFFFFF4E
:1002C000FFFFFFFFFFFFFFFFFFFFFFFFFFFFFFFF3E
:1002D000FFFFFFFFFFFFFFFFFFFFFFFFFFFFFFFF2E
:1002E000FFFFFFFFFFFFFFFFFFFFFFFFFFFFFFFF1E
:1002F000FFFFFFFFFFFFFFFFFFFFFFFFFFFFFFFF0E
:10030000F7B50424A54B9A68224213D0A44A127868
:10031000002A0FD0A3490A78D2B2501CC0B208708C
:10032000A148805CA14AD061A14A09781278914223
:1003300000D11C619A68D20700D42EE19C4F5A6903
:100340003978994CC9B2D5B2481C65540421C0B261
:10035000387098680842FCD0944BD2B29548DA6164
:100360000178012900D0BDE0934A13785E1C167015
:10037000924AD554924B1A78002A00D09EE0302D34
:1003800000D0A6E019701A78032A00D0A3E001215A
:100390008C4A11700022027087480270A02000066B
:1003A00042707F483A7001701A70874B19780129A2
:1003B00000D0F2E0854A1378002B00D0C6E00D2D66
:1003C00000D0C8E011707E4B1978002900D0C5E03C
:1003D000302D00D0C7E0013112781970022A0ED1F9
:1003E0002278342A0BD1A021002201200906CA73E9
:1003F0006B493A70087074490A7075490A701B7825
:10040000032B00D0C9E023782B2B00D0C5E0A0221D
:100410000021704812065172037063780522437000
:10042000A3786D498370E378C3702379037101F079
:10043000CBFC051E00D0A9E0227B654B06001A709C
:100440003B78664A013BDBB21370E318053B1B782F
:100450006D2B17D100900120009B013300935F4B5F
:10046000009A1B78053B9B1A0193E35C303BDAB2A0
:10047000092A03D801287DD1F6180930019BE35CD5
:100480007C2BE9D1564B5E43564B1E60534B1B7879
:10049000E218053A12786D2A75D1063BE41801205E
:1004A0000E2351492278012D03D1CA54002B6AD062
:1004B000013B7C2A00D10500013CF3E7012A04D16D
:1004C0000D2D06D101321A705DE7022A01D10A2DE5
:1004D000F8D00022F7E73B78632B00D065E7434B69
:1004E000012261E7384B1B78002B00D05DE7374EC7
:1004F0003378002B24D10D2D26D10133337033787E
:10050000022B4AD100233B7023782B2B12D1314888
:1005100005220370637836494370A3788370E378CB
:10052000C3702379037101F04FFC002802D1227BB4
:10053000274B1A7001221A4B1A700023337034E7CC
:10054000012B01D10A2DD8D00023D7E7012B02D1EE
:1005500001330A2D00D00023137034E7012904D1A0
:100560000D2D00D137E7002136E70229FBD10A2DF6
:10057000F9D130E74343F61801F0B8FC00F0AAFDCA
:1005800001F01CFB7AE71B4B174A1A60002301217C
:10059000034A3B7011700C4A1370F7BD008006408F
:1005A00000030010040300109A02001000400640EF
:1005B000FE02001001030010920200108F020010D2
:1005C0000603001093020010020300100503001040
:1005D0000303001095020010D21F000094020010C7
:1005E00060EA0000F000001080020010FF0200101E
:1005F000CC1F0000F800001070B50424204B9A684E
:10060000224212D01F4A1278002A0ED01E490A78C0
:10061000D2B2501CC0B208701C48825CDA611C4A1D
:1006200009781278914200D11C619A68D20721D5CD
:10063000174A59691078CDB2C0B2441CE4B21470A4
:10064000124C255404209E680642FCD0C9B2D961E0
:100650000D2D10D11178C9B2481CC0B210700A22F9
:100660006254063A99681142FCD00A22DA61054BBD
:1006700001221A7070BD1378632BFBD1054BF7E78D
:100680000040064000030010040300109A0200100E
:10069000FE020010FF020010034B1A68002A02D06D
:1006A0001A68013A1A607047F4000010024B186093
:1006B0001A68002AFCD17047F40000108022454BD4
:1006C000D201D96FF0B50A43DA6780220124D96FCD
:1006D00012020A43DA67404B85B01C6001F04BFB05
:1006E00001F045FB00F014FCFA213C4B890018682E
:1006F00001F093FB3A4B0138984269D8C021394A3E
:1007000009065060384801AE036A384D1B021B0AC7
:100710000B43036200239360073313603448FFF7F1
:10072000C5FF300001F005FB962320009B010193DB
:100730003471747100F0DAF831000200280000F022
:100740002BFB23222B49280001F000FB10222A4B0F
:100750001C702A4BEC601A60294E2A4F33783B7884
:10076000002B08D039222849284801F0EFFA00234D
:10077000274A3B701370274B1B781A00303A092A1E
:1007800018D8254A1178002914D11470302B11D0B3
:1007900022490B2215480B7201F0D8FA0423204994
:1007A0001B4AEB60087813789842FBD100230B704A
:1007B000137033701B4F38680028CDD0A026360642
:1007C0007473FFF773FF002373733B607472C3E7A6
:1007D000FEE7C0460480044094800440800000107E
:1007E000FFFFFF0010E000E000ED00E000800640A9
:1007F000204E0000BE0000100103001000E100E0E8
:1008000000030010FF0200108400001000400640AA
:10081000FE0200100303001002030010E2000010AB
:1008200004030010F000001004207146084202D0BA
:10083000EFF3098001E0EFF3088081690A88044B37
:100840009A4200D0FEE702318161202101607047A9
:10085000ABBE00008E23044A9B00D35800209B06A9
:1008600001D4024B1868704700800440FC0000105F
:1008700003220A4B10B51B6C1340012B07D0002B31
:1008800003D0934206D0002000E0054810BDFFF7DA
:10089000E1FFFBE7034B1868F8E7C046008004401F
:1008A000001BB700FC00001010B50D4C0020226F9B
:1008B000032A05D8100001F067FB0204070A094863
:1008C00010BDFFF7D5FFFBE7074B1868F8E7FFF708
:1008D000CFFF1F22A368134001335843F0E7C046FF
:1008E00000800440001BB7000401001010B5072869
:1008F00005D801F049FB060E041F11160414002050
:1009000010BDFFF7D1FF0C4B996FC9B201F085FA0A
:10091000F6E7FFF7C9FFF3E7084B1868F0E7084B65
:10092000FBE7FFF7A5FF1F22034B9B681340013332
:100930005843E5E70348E3E700800440FC0000106B
:1009400004010010001BB7008E22802370B51F4CDD
:100950009200A15806000B430321A350236C226C84
:100960008B43134302791A481343236401F0A4F91B
:10097000FFF77EFF366801000500300001F04DFAF8
:10098000144A0023964208D8134A0133964204D8E9
:100990000023124AB2425B4102331F26A168421E65
:1009A00032406036B1430A435B0113438E228021FB
:1009B000A3609200A3588B43A3500123E2681A421C
:1009C000FCD06843064B186070BDC04600800440F0
:1009D00044800440802FA604C0175302E08B2901F5
:1009E0000001001010B503240949020A0B6F2340CF
:1009F0009A420BD0C0B2002808D10B6F2240A3430B
:100A000013430B670348012101F056F910BDC0469E
:100A10000080044074800440F7B500222F4B012170
:100A2000C018431E98411300824253D32C4A9B00A6
:100A3000D3180193002301250093009B019A9B008A
:100A4000D458002C40D01F26227BA36816405209A0
:100A5000920058339B181A68F2402A420AD02A00A2
:100A6000B24027681A60002F04D000232A00616872
:100A70002000B847227BA3685209920060339B187C
:100A80001A68F2402A420AD02A00B24027681A6047
:100A9000002F04D02B002A0061682000B847227B79
:100AA000A3685209920040339B181A68F2402A4208
:100AB0000AD02A00B24026681A60002E04D0022311
:100AC000002261682000B047009B01330093192B7E
:100AD000B3D1F7BD19330A00A6E7C0460080FFAFC7
:100AE0000801001010B50248FFF796FF10BDC04680
:100AF000008000504023024AD16F0B43D3677047F8
:100B000004800440036810B5DB0703D5024B1B6863
:100B1000984710BD014BFAE77C01001080010010DE
:100B200010B5034B03481968FFF7ECFF10BDC04632
:100B30006C0100100000054010B5034B03485968D4
:100B4000FFF7E0FF10BDC0466C01001000400540FB
:100B500010B5034B03489968FFF7D4FF10BDC0469A
:100B60006C01001000000740034B0200986A000E61
:100B700001D0D36AD3627047004000A010B5084886
:100B8000FFF7F2FF074B01001B68002B01D000208C
:100B900098470122024B1968114200D15A6210BDD8
:100BA000004000A08401001010B50848FFF7DCFFEA
:100BB000074B01005B68002B01D0012098470222FF
:100BC000024B1968114200D15A6210BD004000A0CA
:100BD0008401001010B50848FFF7C6FF074B01005D
:100BE0009B68002B01D0022098470422024B196811
:100BF000114200D15A6210BD004000A084010010D3
:100C000010B50848FFF7B0FF074B0100DB68002B69
:100C100001D0032098470822024B1968114200D1E5
:100C20005A6210BD004000A08401001010B50848B1
:100C3000FFF79AFF074B01001B69002B01D004202E
:100C400098471022024B1968114200D15A6210BD18
:100C5000004000A0840100100122824002494B683C
:100C600093434B607047C04600800440012383409B
:100C7000024A51680B4353607047C04600800440ED
:100C800010B5024B02481B68984710BDA401001024
:100C900000400050036810B55B0703D5024B1B688A
:100CA000984710BD014BFAE7B0010010B4010010E5
:100CB00010B5034B03481968FFF7ECFF10BDC046A1
:100CC000A80100100080054010B5034B0348596887
:100CD000FFF7E0FF10BDC046A801001000C00540AE
:100CE000074A03000020934208D0064A012093429D
:100CF00004D0054A0020934200D102307047C0461C
:100D0000004006400080064000C00640F0B5036881
:100D100087B006000C0002921B0531D40B01019331
:100D20000F2301271D007F42049303976B1C019939
:100D30000298059301F071F8431E05931A00144BB5
:100D40009A420ED8691C4143029801F066F8231AB2
:100D5000844200D2031B039A934202D2059F04955A
:100D60000393019B013D1B1B0193072DDED1084B13
:100D70009F420BD8049BB3623762002007B0F0BDDE
:100D8000029801F04AF801383062F6E70148F5E7C9
:100D9000FFFF00004F160000F8B501270D0004000A
:100DA0001600FFF79DFF3A002A4BD96F9C462A4B4D
:100DB0001B5C9A40130062460B43D367274B185CB9
:100DC00000F0A0FF30214020AB79AA7A1B010B4034
:100DD000697AC9030F43E9793B43890101400B4319
:100DE000297A34388900014080200B43C0019103E7
:100DF00001400B438021920209010A4029681343F4
:100E00002360002913D16B79002B17D001232268AE
:100E1000134340222360636893436360287900286A
:100E200010D00123226800201343236005E0320024
:100E30002000FFF76BFF0028E5D0F8BD4023626873
:100E40001343EAE763685B06F7D5012223689343FF
:100E50002360F2E704800440D81F0000DB1F00007D
:100E600010B5034B034A1B6811680348984710BD2F
:100E7000C4010010B80100100040064010B5034B3B
:100E8000034A1B6851680348984710BDC40100100D
:100E9000B80100100080064010B5034B034A1B68E0
:100EA00091680348984710BDC4010010B8010010B4
:100EB00000C006408E23F7B50125022100270F4C04
:100EC0009B00E2580E4EAA43E250E25868468A431D
:100ED000E2500C4B1F606B4600961F71FFF734FD0C
:100EE0003800FFF77FFDFF22074B1F60A36F93437E
:100EF0001D43064BA5671E60F7BDC0460080044039
:100F0000001BB70040800440E080044080000010D7
:100F1000F0B50226A02485B0240632001E4968469A
:100F200000F034FF200000210025FFF7E3FD6B46B1
:100F300001222000002100F0C9FE012301AF290099
:100F400020003B707D70FFF7D5FD3B00290020009D
:100F50000D2200F0BBFE32000F4902A800F016FF80
:100F600029002000FFF7C6FD02AB290020000F2258
:100F700000F0ACFE3200084903A800F007FF29008A
:100F80002000FFF7B7FD03AB09222900200000F085
:100F90009DFE05B0F0BDC046DE1F0000802370B589
:100FA0008026104CDB02E26F0F4D1343E367E36FC3
:100FB00028003343E3670422002100F0ABFE280041
:100FC0000022012100F0A6FE28001122052100F0D8
:100FD000A1FE28001722062100F09CFEE36FB34318
:100FE000E36770BD0480044000C0004010B5044AAF
:100FF000044B9A60044B054A1A6000F0C0FE10BD15
:101000000000000000ED00E080000010001BB700B1
:1010100037B5184C18492200002000F02DF9802324
:1010200080225B00D2000021200000F02FF8134C3A
:10103000134D22002900012000F01EF98023802298
:101040005B00D2000021200000F020F80D4B1B684F
:101050000193022B0DDD0C4C29002200022000F030
:101060000BF9802380225B00D2000021200000F0D9
:101070000DF837BDCC010010E01F00000802001081
:10108000E21F0000C81F000044020010F0B5C56850
:101090000124AE0710D08026B600B24207D08026C9
:1010A000F600B2420AD080267600B24204D1084F40
:1010B0005E1E0124BE4204D92000F0BD01002300C1
:1010C0002431154301610160C361C5600024F3E769
:1010D000FEFFFF00F0B5002285B0002306000F00E0
:1010E00000F0BCFD002817D000220023300039009A
:1010F00000F086FD00280BD021223D4B1A60802293
:10110000120694463B4B1E685B68009363441F00C5
:101110003000390005B0F0BD7900490D0391039806
:101120003549844661440291344935483940084381
:101130000500344A344B3000290000F067FA334A86
:10114000334B00F0A7FC34000F00060002000B0038
:101150002000290000F01CFB32003B0000F09AFC4C
:101160000022274B00F052FA06000F0002000B008D
:101170002000290000F00CFB32003B0000F08AFC4C
:1011800000221F4B00F042FA06000F0002000B0085
:101190002000290000F0FCFA32003B0000F07AFC4D
:1011A000174B002200F032FA029B00900191134D80
:1011B000DB070AD5174A184B00F028FA174A039B99
:1011C000944600900191634402930199009A019B17
:1011D0004E000299760DC80F44186410A4190199A5
:1011E000640564080D4025432B0016008FE7C046B8
:1011F000C8010010C01F000002FCFFFFFFFF0F80AE
:101200000000E03F18096D3997E2E23FF7CC920009
:1012100035B5DA3FCD3B7F669EA0E63F03FCFFFF7E
:10122000032110B5421C084218D1114C0368114922
:1012300059189943214219D0DCB2411C002C0BD023
:10124000FF242402811C234206D0FF2109040B4005
:10125000591E8B41C318D91C881A04E0431C00781E
:10126000002801D1981A10BD1800DCE70430DDE732
:1012700080808080FFFEFEFEF7B50D00019010001B
:10128000140000F033F82B78722B1FD0772B04D08A
:10129000612B26D10823144A01E0042302220220F4
:1012A000691C032784460426012508782B2810D0C2
:1012B000622813D0E260019A62611B0704D5022202
:1012C0000021200000F062F82000FEBD0023012272
:1012D000E5E760463A4303430131E6E732432B43F7
:1012E000FAE70024F0E7C04602800000F0B5C468C9
:1012F00089B00500A30722D0230718D447690669DF
:1013000000F022F8380000F047FE230502D5300037
:1013100000F044FD0B4BA40DA4059C4207D12022F4
:10132000296A684600F047FE684600F06AFD3C22E4
:101330000021280000F02EFD002009B0F0BD0120A2
:101340004042FAE7000080AD73B5002813D000F0EA
:10135000B9F80500280076BD30006043094BC0187D
:1013600000F0B0F8002801D001256D420134019B46
:10137000A342F1DCEEE7044B04001B680500019377
:101380003C26F4E7CC010010C81F0000F7B5394B2C
:10139000C56804000E0000921D4201D1022741E001
:1013A00043691800019300F0FDFD071EF6D1009B74
:1013B000012B28D0022B2BD0002BEFD1002EEDDB00
:1013C000AB0404D52368E26A9A4200D2E362A069C2
:1013D000B0420EDCE26A2368934200D21300226915
:1013E00019180092891AB14203DB216B4218B242EC
:1013F0002EDC20231D430023A662A36063601E4BE6
:101400001D40E5600EE0200000F038F83618D5E702
:10141000019800F0C4FDE268002805DA8023012766
:101420001343E3603800FEBDE16A2368994200D9A6
:101430000B00A1695B1821695B1A920603D5A26AA9
:10144000934200DA1300834200DA0300F618B5E78E
:10145000361AAA0701D5711AA160EA0703D5009AC6
:101460009B1AF31A6360009B9E19202326609D43FC
:10147000C5E7C04603001000BFCFF7FFC26893075F
:1014800005D1212201200E4B40421A6070472023D3
:10149000134012030AD5002B02D0806A0138F5E709
:1014A0000368826900699B18181AF7E7002B01D0BE
:1014B000806AEBE70368826900699B18181AE5E700
:1014C000C801001070B50326C36804001E4011D087
:1014D0009B0611D5856A00F079F8E268094B200077
:1014E0001340E36000F010F80022060029002000FD
:1014F000FFF74CFF300070BD036882699D180369D7
:10150000ED1AEAE7FFCFFFFF70B504000569016837
:10151000C26A124BC0680340E36082230340022B7F
:1015200002D00120404270BD80235B021840FAD0F7
:10153000914200D211008D4208D10020E268084B90
:10154000E56213402560A060E360ECE7491B2200E0
:10155000280000F007F80028EFD0E2E7FFFFF7FFD0
:10156000FFFFFEFFF7B5D56801900E001400576924
:10157000EB0205D5102338001D4300F010FDA061DB
:10158000104B1D420FD0A169380000F011FD00285A
:1015900006DA80230120E26840421343E3600FE053
:1015A000094B1D40E56032000199380000F006FD4E
:1015B00043005B08F61AA3699E19A6610028E8D1CA
:1015C000FEBDC04610000200EFFFFDFF202310B556
:1015D0000400C2689A43E2608369826A93420CD035
:1015E000FFF792FFE368074A1A4010231343E360B2
:1015F000A36AA3612369E3622360E268024B13409C
:10160000E36010BDEFCFFFFFBFBFFFFFF0B51400D9
:101610001A004A40D20F8BB00600D2074800400D96
:10162000039200D186E0514DA84200D182E05A00D9
:10163000520D00D17EE0AA4200D17BE0DF02630DB3
:101640001F43802380251B061F4300230903090B2A
:101650006D030D438218069228003A00190000F02D
:1016600051FCE3021A00079300230490059128001F
:10167000190000F047FC0023009101930099019AA2
:10168000049B059C5B185441089309940023320085
:10169000049019000798059300F034FC0D00019B9D
:1016A000320004001900380000F02CFC2A00019BD5
:1016B000019F80185941049A059B80185941089A46
:1016C000099B0E00B6185F412949069A294BA408C8
:1016D000204351189F420DD81300274AC40F944647
:1016E0006344320019003B0092197B4114432600E9
:1016F0001F0040000023C20FB6185F418022330054
:101700001206904203D1012332009A4313001B4A70
:10171000914206D81800039A0C053A43A1180BB061
:10172000F0BD002903DB039A154B1A4303920020F6
:101730000399F4E7134A4900914211D858009042A6
:10174000F5D9114A5B0093420DD8490D00200029BC
:101750000AD05B0D08D00A4B039A1A431100DEE74A
:10176000094A9142EDD000200849D8E7FF07000060
:1017700001FCFFFFFFFF0F0000FCFFFFFD07000063
:101780000000F07FFFFFDFFF0000E0FF0000F87FB8
:10179000F7B51C004D004C406D0D019462D0474FD1
:1017A000BD425FD05C00640D5CD0BC425AD02F1BA0
:1017B000C902440D214380242406A446C402604685
:1017C000DB020843510D0B43614605000B43D20277
:1017D000834202D81BD1A24219D9394950087F1837
:1017E000D90708433522590800235B00A94206D8CF
:1017F00001D1A04203D80126241A8D413343241974
:101800006D41561E212A0CD100933200EDE7E90705
:101810008C4666466008690806430D003400294975
:10182000DCE7321EE1D1A94208D801D1A04205D897
:1018300001335A425A4100998A180092019A22496A
:10184000D20FD2078F4205D83F05009CBA18111954
:10185000180005E0002F01DB1C4B1A43002011008B
:1018600003B0F0BD1A4C4800A04202D85A00A24270
:1018700002D900201749F3E70B435B005B0D5B05C2
:1018800001D11449E4E7019BDF0FFF07430D5B051E
:101890003900002BDCD0530D5B0503D10B4A3A43D2
:1018A0001100D5E7A24204D0084B00203B431900A9
:1018B000D6E79042DDD00020D2E7C046FF07000007
:1018C000FD030000FE030000FD0700000000F07FA4
:1018D0000000E0FF0000F87FF7B5040006001000EC
:1018E0001A001F000D004A4008D580252D06020071
:1018F0005B19200000F0CEF803B0F0BD8B4203D896
:10190000A0420AD38B4208D180231B06D318320091
:10191000594006000D0010007B405A4A5A492F0DCD
:101920001C0D3C1B3A408A4200D1A1E0944200D1F8
:1019300099E0802229031B035203090B1B0B11435F
:1019400013431F2C4FD81A00E240891A0200E240CC
:1019500001922022141BA340019A1A43B21A964204
:10196000B64103007642891BA34005D0013A501CC2
:10197000444260415B42091AC0204003014250D1F9
:101980004900D40F0C435200DB0F134322001A43CB
:10199000023F111E57D0620B1CD0620C04D1190FEC
:1019A00024010C431B01043FE20C04D1990FA40055
:1019B0000C439B00023F220D04D1D90F64000C435D
:1019C0005B00013FFA0AED0FAA4209D13F05391920
:1019D000180091E7190E24020C431B02083FDAE7B6
:1019E0000020E90788E73200352C1AD81D00203C7A
:1019F000E540721B20252D1BAB4005009642B641E9
:101A0000E5407642891B2B43000608D0FF200343A4
:101A1000013A501C444260415B42091A01E0002B2C
:101A2000F6D1C80209D4013F7C050ED0D00F490081
:101A300001435200D80F02435B00144C3F050C4099
:101A4000002B05DBE119100056E73905200053E7AC
:101A50000132514251416418802109068B42F1D173
:101A600001239A43EEE7211EF0D02900300043E71E
:101A70002B030020002B01D005493DE7002CF4D1B9
:101A80000349E3E7FFF7FFFFFF070000FFFFEFFF5A
:101A90000000F87FF7B51F000C00009105000190D1
:101AA0001E004F4007D5802636069D192B00FFF7F4
:101AB00013FF03B0F0BD8B4203D91C001500009E3C
:101AC000019A3A483A4B210D0840984265D0330DAF
:101AD000CB1A83425BD08020240336034003240BBF
:101AE000360B044306431F2B26D83000D84020274E
:101AF00024181000D840FB1A9E400643AD19B54289
:101B0000B6419A407642A4191600A3022ED501359B
:101B10006B426B41E418002E01D102239D43620801
:101B20000B059B18234A580090421BD86D08E40708
:101B30002C4319002000BCE7352BE6D83000203BB1
:101B4000D8402D1885428041404224182020C01AD8
:101B500086401000D84012060643002AD5D0FF2345
:101B60001E43D2E74B1C00201905A2E70139002EC5
:101B700009DA01356B426B41E41880231B069E4253
:101B800001D101239D430B051919280091E7002B72
:101B900009D1E40FE10718008BE723030020002B95
:101BA00001D0054985E72100EFE7C046FFF7FFFFB9
:101BB000FF070000FFFFDFFF0000F87F430DC802B2
:101BC00003438020000618430A4B0A0D9B1AD84095
:101BD000FF2B0ED9E022D2004042134209D0002050
:101BE0004B0006D5044A4B00934202D8034BC80F62
:101BF000C01870471E0400000000E0FFFFFFFF7FD9
:101C0000F0B5040018000E001D000843124F0DD45B
:101C10005B000020BB4208D80130A94205D3002058
:101C2000A94202D1944280414042F0BD49000020C7
:101C3000B942FAD85B00BB42F7D82143814202D1B6
:101C400013438342F1D00120AE42EED80020AE42D1
:101C5000EBD1A2428041E7E70000E0FFF7B51C00AE
:101C60000E001D0001920C43124F0ED45B000024A5
:101C7000BB4208D80134A94205D30024A94202D1AD
:101C80001300834264412000FEBD49000024B94294
:101C9000F9D85B00BB42F6D80134AE42F3D801D18B
:101CA0009042F0D200240143A142ECD113435C42A4
:101CB0005C41E8E70000E0FF03688B4303600368D2
:101CC0000B43036003681942FCD0704770B50124D0
:101CD000944080221E788D009201002E04D140197C
:101CE0008358A343835070BD5B78002B08D18A23AF
:101CF0001B01C91889000C50401983582343F1E790
:101D00008823F5E710B50400FEF7A6FF2000FEF7D4
:101D1000ADFF10BD032310B5FF240B40DB009C403A
:101D20009A408908890041180868A04302430A6064
:101D300010BD96239B010360012200230272837170
:101D4000C37143720371437183727047042310B5EA
:101D50008A18914204D1082382681A42FCD010BD2F
:101D600084681C42FCD00C780131C461F1E710B5E5
:101D7000FFF7A0F810BD10B5FFF710F910BD7047C0
:101D800010B5FFF745F9FEF799FC10BD10B500F04E
:101D9000D0F810BD10B500F0E2F810BD10B5002865
:101DA00011D080210C38490501608268002A0AD0D0
:101DB00013688B4207D14368546803331B1943608F
:101DC00093688360F1E710BD03000B4330B59B07B8
:101DD00007D00024A2420BD100200FE004300431D0
:101DE000043A032AF5D903680C68A342F6D0F0E759
:101DF000035D651C0C5DA34201D0181B30BD2C0097
:101E0000E8E710B50400FFF70BFA0100200000F02E
:101E1000CCF810BD03000B4321D4002931D001229E
:101E2000D207030901E0090112099942FBD94308CD
:101E300001E0490052089942FBD900E04908401AE4
:101E400007D35241FAD3014610467047490840185B
:101E5000F7D29218FAD34018014610467047CB0FBC
:101E600000D04942021000D54042534008B5FFF768
:101E7000D4FF0CBC521000D34042002A00D5494286
:101E80001847F446002000F001F86047704710B58D
:101E9000002804D1030002001000190010BD030C3B
:101EA00010D10004030E11D10002030F12D1000162
:101EB000830F13D18000002814DB4000C412631884
:101EC0004205E9E780235B04C918EBE780231B0484
:101ED000C918EAE78023DB03C918E9E780239B03DD
:101EE000C918E8E780235B03C918E7E7802310B52A
:101EF000C10FDB05C907C918C317C0185840FFF741
:101F0000C6FF10BD10B543435143C918040C130C50
:101F10005C43091992B2040C544380B243435043CA
:101F20002204240C801861411A041B0C80185941AA
:101F300010BD8446830708D18B0706D1131F04D335
:101F400004C904C0043BFBD21A1D524205D0891AB1
:101F5000801A8B5C83540132FBD160467047844603
:101F6000043A09D3830707D109060B0A19430B0C5E
:101F70001943043A02C0FCD2043203D0017001308C
:101F8000013AFBD1604670478C4671460139095CC5
:101F900049008E446146704701204042704701204D
:101FA0004042704701204042704701204042704744
:101FB00001204042704701204042704710007047A6
:101FC000FFFFFFFFFFFFEF7F030000002B434D5497
:101FD00049002B434D4752000E0F10030405010129
:041FE0007200770014
:101FE400001BB7000D0A596F75206861766520697A
:101FF4006E70757420746F6F206D616E79206368E4
:1020040061726163746572732C20506C65617365D1
:102014002074727920616761696E210D0A00415450
:10202400563045302B434D47443D312C343B2B43F4
:102034004D47463D313B2B4950523D393630300DEA
:102044000A0041542B434D47523D300D0A00FFFF17
:04000003000000D524
:00000001FF
